:020000040800F2
:10000000101C0020892E0008A12E0008A32E000835
:10001000A52E0008A72E0008A92E00080000000049
:10002000000000000000000000000000D12E0008C9
:10003000AB2E000800000000492000088D1F0008BA
:10004000D52E0008D92E0008DD2E0008E12E00086C
:10005000E52E0008E92E0008ED2E0008F12E00081C
:10006000F52E0008F92E0008FD2E0008012F0008CB
:10007000052F0008092F00080D2F0008112F000878
:10008000152F0008192F00081D2F0008212F000828
:10009000252F0008292F00082D2F0008312F0008D8
:1000A000352F0008392F00083D2F0008412F000888
:1000B000452F0008492F00084D2F0008512F000838
:1000C000552F0008592F00085D2F0008612F0008E8
:1000D000652F0008692F00086D2F0008712F000898
:1000E000752F0008792F0008000000007D2F000800
:1000F000812F0008852F0008892F00088D2F000808
:10010000912F0008952F0008992F00089D2F0008B7
:10011000A12F0008A52F0008A92F0008AD2F000867
:10012000B12F0008B52F0008B92F0008BD2F000817
:10013000C12F0008C52F0008C92F0008CD2F0008C7
:1001400000000000000000000000000000000000AF
:10015000D12F0008D52F0008D92F0008DD2F000867
:10016000E12F0008E52F0008E92F0008ED2F000817
:10017000F12F0008F52F0008F92F000800000000FB
:10018000FD2F000801300008053000080930000884
:100190000D30000811300008153000081930000833
:1001A0001D30000821300008253000080000000044
:1001B000293000082D3000083130000835300008A3
:1001C000393000083D300008000000000000000049
:1001D00000000000000000004130000800000000A6
:1001E000000000000000000000000000000000000F
:1001F0000000000000000000453000084930000801
:100200004D30000851300008000000005530000853
:10021000593000085D300008613000086530000882
:1002200069300008000000006D3000080000000088
:1002300071300008753000080000000079300008B7
:100240007D300008813000088530000889300008C2
:100250008D30000891300008953000089930000872
:100260009D300008A1300008A5300008A930000822
:10027000AD300008B1300008B530000800000000C3
:10028000B9300008BD300008C1300008C530000892
:1002900000000000C9300008CD3000080000000058
:1002A00000000000D1300008D5300008D930000827
:1002B000DD300008E1300008E5300008E9300008D2
:1002C000ED300008AD2E0008F1300008F8B504004C
:1002D00029D02078DFF87454C10711D52869A96A9C
:1002E00000F03800102805D0182804BF01F00301E1
:1002F00002292CD129688A0302D56068002812D00F
:1003000021788A0765D52869A96A10F0380005D0D8
:10031000182808BF11F0030F40F08E80E0682968AC
:100320004A0702D5002800F0F181296821F019015F
:100330000843286000F012FA06462868410741D4B5
:1003400000F00CFA801B0328F7D30320F2BD60688D
:10035000B0F5803F0FD038B9296821F48031296089
:10036000286820F4802009E0B0F5A02F08D1296882
:1003700041F480212960286840F48030286007E03B
:100380002A6822F480322A60296821F480212960B9
:10039000606858B100F0E2F9064629688803AFD4D6
:1003A00000F0DCF9801B6528F7D3CEE700F0D6F922
:1003B000064628688103A3D500F0D0F9801B652884
:1003C000F7D3C2E76868216920F0FE4040EA016087
:1003D00068602078C10619D52869A96A00F038003C
:1003E000082805D0182804BF01F00301012946D1CF
:1003F0002868C10503D5E269802A40F08781E86852
:10040000216A20F07C5040EA0160E8602278110700
:1004100067D56069002854D0696F41F001016967B0
:1004200000F09CF90646686F81075AD400F096F9EF
:10043000801B0328F7D388E7E06880B1296821F0A2
:1004400019010843286000F089F906462868410729
:10045000B8D400F083F9801B0328F7D375E72A6826
:10046000520852002A6000F079F9064628684107D0
:10047000AFD500F073F9801B0328F7D365E7E06977
:1004800078B1296841F08001296000F067F90646DB
:100490002868C105B3D400F061F9801B0328F7D3A5
:1004A00053E72A6822F080022A6000F057F90646D6
:1004B0002868C105AAD500F051F9801B0328F7D39D
:1004C00043E7686F40084000686700F047F9064658
:1004D000686F810705D500F041F9801B0328F7D329
:1004E00033E721788A0621D5A069296800280ED033
:1004F00041F48051296000F031F9064628688104F2
:1005000014D400F02BF9801B0328F7D31DE721F446
:100510008051296000F022F906462868810405D53B
:1005200000F01CF9801B0328F7D30EE72078420760
:1005300048D5874F396841F48071396000F00EF971
:1005400006463868C10505D400F008F9801B652807
:10055000F7D3FAE6A068012804D1286F40F0010023
:10056000286713E008B9286F09E00528286F06D12D
:1005700040F004002867296F41F0010105E04008C0
:1005800040002867296F21F004012967A06841F223
:10059000893658B100F0E2F80746286F810711D478
:1005A00000F0DCF8C01BB042F7D3CEE600F0D6F87E
:1005B0000746286F810705D500F0D0F8C01BB04270
:1005C000F7D3C2E6606A002800F0BE802969614E58
:1005D00001F03801182973D02968022821F08071B0
:1005E000296061D100F0BAF807462868810105D575
:1005F00000F0B4F8C01B0328F7D3A6E6AB6AA16AE3
:100600005548E26A03400B4343EA0213AB62616B55
:10061000206BA26B491E4902401EC0F30800521E07
:1006200001F47E4112040843E16B02F4FE02104320
:10063000491E090601F0FE4108432863E86A4008A4
:100640004000E862696BA06C0E4046EAC0066E632B
:10065000E96A206C21F00C010143E962E96A606CEF
:1006600021F002010143E962E96A41F48031E96263
:10067000E86A40F40030E862E96A41F48021E96206
:10068000E86A40F00100E862296841F08071296061
:1006900000F064F804462868810155D400F05EF843
:1006A000001B0328F7D350E600F058F804462868EA
:1006B000810149D500F052F8001B0328F7D344E626
:1006C0000128A96A2A6B21D0A36A01F0030098428D
:1006D00002BFC1F30510E16A884217D1236BC2F350
:1006E0000800401C984201BFC2F34620401C616BC9
:1006F00088420BD1A16BC2F30640401C884201BF67
:10070000C2F30660401CE16B884201D00120F2BDBB
:10071000686BA16CC0F3CC00814215D0E86A400838
:100720004000E86200F01AF8054600F017F8401B98
:10073000FBD00648416BA26C0E4046EAC2064663F7
:10074000C16A41F00101C1620020F2BD00440258BB
:10075000004802580700FFFF0CFCFFFF01484068FB
:10076000704700BF000000202DE9F04104008846DA
:100770005AD0DFF8A873386800F00F00404502D265
:1007800000F0D0F850D12078DFF89453420706D516
:100790002069A96901F07001814200F0E2F8207837
:1007A000020706D56069E96901F07001814200F035
:1007B000D1F82078C20606D5A069E96901F4E061A4
:1007C000814200F0C0F8207882060AD5E069296AE3
:1007D00001F07001814204D22A6A22F070021043B3
:1007E00028622078820706D5E068A96901F00F0128
:1007F000814200F0A1F82078C20731D5A969A0682C
:1008000021F470610143A9616068022802D129685E
:100810008A0308E0032802D129688A0103E001283D
:1008200003D12968CA0503D42CE02B68590729D5C0
:100830002A69D20840EAC2002861FFF78FFF064606
:100840002869616800F03800B0EBC10F08D0FFF7ED
:1008500085FF801B41F289329042F1D303205FE093
:100860002078820706D5E068A96901F00F01884267
:1008700000F062F8386800F00F00804504D200F004
:1008800051F801D001204BE02078420706D52069BD
:10089000A96901F07001884200F063F8207802072E
:1008A00006D56069E96901F07001884200F052F8EC
:1008B0002078C20606D5A069E96901F4E0618842A2
:1008C00000F041F8207881060AD5E0692A6A02F032
:1008D0007002904204D2296A21F070010843286214
:1008E00000F046F8AA69DFF84C12C2F303228B5CD1
:1008F000AC69DFF8305204F00F04095D03F01F0308
:10090000D840DFF8243201F01F0120FA01F21A600A
:100910002860DFF81C020068BDE8F04100F016B95D
:10092000BDE8F0813968090948EA011139603A687F
:1009300002F00F024245704704D2AA69120940EA48
:100940000210A861704704D2EA6922F4E062104301
:10095000E861704704D2EA6922F070021043E8614E
:10096000704704D2AA6922F070021043A861704750
:1009700030B56B4B6D48196911F0380104D010295E
:100980000AD018290AD069E01A68940667D5196850
:10099000C1F3C101C84030BD684830BD9C6A996A46
:1009A000DD6A5A6B05F00105C1F30511C2F3CC02F3
:1009B0005543002900EE105AB8EE400A4CD014F00E
:1009C000030400EE901AF8EE600A02D0022C20D048
:1009D00022E019689FED4D1A20EE010A8A0608D51B
:1009E0001968C1F3C101C84000F03CF8C1EE200A0B
:1009F00003E09FED472AC2EE200A186BF7EE001ABB
:100A000000F02EF831EE000A70EE211A20EEA10A55
:100A100013E09FED402A01E09FED3F2A186BDFEDC8
:100A20003B1AC2EE200A00F01BF800EE211AB7EEC6
:100A3000000A31EE000A20EE800A186BC0F346204F
:100A4000401C00EE900AF8EE600A80EE200ABCEE30
:100A5000C00A10EE100A30BD002030BD384830BD4D
:100A6000C0F3080001EE100AB8EE411A704710B545
:100A7000FFF77EFF334A2F4B11681268294CC1F3F0
:100A80000321595C02F00F0201F01F01C8402060F1
:100A90009A5C254902F01F02D040086010BD80B565
:100AA000FFF7E5FF00F007F8C3F30222895C01F0CD
:100AB0001F01C84002BD244A1E491368704710B583
:100AC0003F2202601C4A136803F0070343609468E6
:100AD00004F470648460936803F00F03C360946847
:100AE00004F070040461D36803F070034361D468B8
:100AF00004F4E0648461126902F07002C261074884
:100B0000036803F00F030B6010BD00000000003904
:100B10000024744C20BCBE4B0024744A00200052B8
:100B2000004402580C000020100000200090D00368
:100B300008000020182C00081044025840787D015D
:100B400000093D00184402581C44025810B50446E0
:100B5000102C8AB030D200222146A12000F051F89A
:100B6000A12000F06BF81648046016480168164C86
:100B700041F080710160026801A902F08072009268
:100B8000009802A8FFF79BFFFFF789FF40000F4B7B
:100B90000F4940F2E732B0FBF3F02160401E606085
:100BA0000021E26020462161A16000F09BF818B9A5
:100BB000204600F0A4F800E001200AB010BD0000BB
:100BC00008000020EC4402588C0B002040420F002B
:100BD00000E000400901020002D43C488154704703
:100BE0003B4B02F00F029A1802F8041C7047394977
:100BF0000A6860F30A2240F2FA5060F31F420A606A
:100C0000704770B5334B1C68C4F302230124C3F151
:100C10000705052D2EBF0F2504FA05F56D1E1E1DB7
:100C2000072E34BF0023DB1E2940994004FA03F34A
:100C30005B1E1A401143BDE87040CBE7010007D4AA
:100C4000012200F01F018A40234B400943F8202075
:100C50007047BFF35F8F21480022016821F4803183
:100C60000160026770471D4940F00100086708688D
:100C700040F480300860BFF34F8FBFF36F8F704731
:100C800010B5427816490A608B685B085B008B6080
:100C900042684A60C27A037B447B120642EA0372CE
:100CA000837A42EAC342837B42EA8442C47B42EABB
:100CB0004342437A42EA0442047A007842EA032239
:100CC00042EA440202438A6010BD000000E400E0F2
:100CD00018ED00E00CED00E000E100E024ED00E0A4
:100CE00098ED00E038B5040001D1012032BD00F0DC
:100CF00076F818B900F06FF800F0A2F954E010B5DA
:100D000090F83D10012901D0012010BD022380F888
:100D10003D300168DFF8D030CA6842F00102CA6095
:100D20000168994218BFB1F1804F1FD0DFF8BC2095
:100D300091421CBFDFF8B830994217D0DFF8B440B9
:100D4000A1421CBFDFF8B02091420FD0DFF8AC30D9
:100D500099421CBFDFF8A840A14207D0DFF8A420C9
:100D600091421CBFDFF8A030994208D100F00FF883
:100D700018BFB1F5803F08D000F00FF805E00B4632
:100D80001A46196841F001011160002010BD8C68FD
:100D9000DFF8781021400629704701680A6842F0A0
:100DA00001020846026070470220211D6870206819
:100DB00000F0D2F80120012128730122A970EA7005
:100DC00028716971AA71E87129726A72A87200208B
:100DD000E9726A7032BD002120462970704704F123
:100DE0003C056878704700000000014000040040A6
:100DF00000080040000C00400004014000180040C2
:100E00000040014000E0004000E400400700010015
:100E1000F8B504462068C5680669B10714D5AA0765
:100E200012D56FF00203012103612177806910F070
:100E3000030F204602D000F004F903E000F002F9AD
:100E400000F087F800202077710715D5680713D5C3
:100E500020686FF00401022201612277806910F49A
:100E6000407F204602D000F0ECF803E000F0EAF802
:100E700000F06FF800202077310715D5280713D52B
:100E800020686FF00801042201612277C06910F028
:100E9000030F204602D000F0D4F803E000F0D2F8AF
:100EA00000F057F800202077F10615D5E80613D595
:100EB00020686FF01001082201612277C06910F4E8
:100EC000407F204602D000F0BCF803E000F0BAF802
:100ED00000F03FF80023237706F0010205F001013E
:100EE0000A4206D027686FF0010320463B6100F0FC
:100EF00062F916F4025F08D02A0606D521686FF45D
:100F000002500861204600F067F9F20508D52B066B
:100F100006D521686FF480700861204600F05DF905
:100F2000720608D56B0606D521686FF0400008618F
:100F3000204600F053F9B0060AD5AA0608D5206865
:100F40006FF0200101612046BDE8F24000F047B992
:100F5000F1BD204600F044B92DE9F043DFF8B8C0F8
:100F60000368DFF8B840DFF8B850DFF8B880DFF882
:100F7000B890DFF8B820DFF8B8E0DFF8B860604577
:100F800018BFB0F1804F07D0B04218BF704503D0F2
:100F9000904218BF48450DD123F070074B683B4382
:100FA000604518BFB0F1804F14D0B0421CBF7045EF
:100FB00090420FD0484518BF40450BD0A84218BFFB
:100FC000A04207D0DFF8702090421CBFDFF86C20F1
:100FD000904203D123F44076CB6833434A69D1F879
:100FE00008E023F08003C0F82CE00E68134386620B
:100FF000604518BF484504D040451CBFA842A042E8
:1010000001D1096901630268012442F0040202600F
:1010100044610360BDE8F0830000014000480140E6
:10102000004401400040014000040140000C004029
:10103000000800400004004000E0004000E40040E0
:101040007047704770470EE00268436882180830A6
:101050005FEAC37C44BF4B445B1E52F804CB43F8A9
:1010600004CB091FF9D150F8041B0029ECD17047BB
:1010700010B586B06846002100220023002480E8D5
:101080001E00FFF7E6FD012187228DF800101F21C9
:101090008DF8081001218DF80140684601948DF803
:1010A0000920ADF80A408DF80C108DF80D10ADF840
:1010B0000E40444CFFF7E4FD0420FFF7D4FD00F0A0
:1010C00091F800F02AF8142101A800F0B9F83E4880
:1010D000026842F080020260016801F08001009124
:1010E000009A0368002243F040030360006800F0A8
:1010F0004000009000992046802100F085F9802171
:10110000012201910023029201A903932046049336
:1011100000F09AF800F0FCF9FEE780B59CB04C2195
:1011200009A800F08DF8202101A800F089F802201C
:1011300000F012FA002000902448026822F4404295
:101140000260016801F440410091009A01688B043B
:10115000FCD54FF4803101220A912C2109920223FF
:1011600015910C2116920022129309A8139314933F
:101170001793189319911A921B92FFF7A7F808B1C9
:1011800000F028F83F210322019108210292402219
:10119000049140210592002306914FF4806208914A
:1011A0000321039301A80792FFF7DEFA08B100F0CC
:1011B00011F81DB000BD00680549884208BF00F065
:1011C000F3B9704700180258E04402581848025812
:1011D00000E0004072B6FEE7704770477047704706
:1011E0007047000038B50320114DFFF700FDFFF7F1
:1011F000BFFB1049104A0B68C3F30323D45C096892
:1012000001F00F01525C04F01F04E0400B4C02F0AF
:101210001F0220FA02F3236028600F20FFF796FCDC
:1012200008B1012032BD00F0C7F9002032BD000036
:101230000C00002018440258182C00081000002050
:10124000002200F0C9B900002DE9F84F0027DFF8AF
:10125000D0814FF0B045DFF8CC9102460B462EE02E
:10126000714CA24214BF0A2409248C4044EA0E04A3
:101270006E49C64341F82C4029685C683140E4025D
:1012800048BF0143296069685C683140A40248BFD7
:1012900001436960D8F804105C683140A40348BF7A
:1012A0000143C8F80410D8F8001006EA010C596888
:1012B000C90348BF40EA0C0CC8F800C07F1C18687E
:1012C00030FA07F100F09E800121B9400840F5D0C6
:1012D0004FEA470C032404FA0CF46FEA040E5C682E
:1012E00004F00306012E1CBF04F00304022C10D1ED
:1012F0009468DE680EEA040406FA0CF6344394603F
:10130000546824EA01015C68C4F30014BC40214322
:1013100051601C79B90004F00304032C20D0D46878
:101320009E680EEA040406FA0CF63443D4601C7975
:1013300004F00304022C13D1FE084FF00F0A02EB55
:10134000860401F01C060AFA06FAD4F820B02BEA4B
:101350000A0BD3F810A00AFA06F646EA0B06266234
:1013600014680EEA04061C7904F0030404FA0CF471
:1013700044EA060CC2F800C05C6814F4403F9DD0FB
:10138000D9F800404FEA970C01F00C01284E44F0C8
:101390000204C9F80040D9F800E00EF0020ECDF8C2
:1013A00000E0009CDFF884E05EF82CE00F248C4025
:1013B000B2422EEA040E08BF002422D01D4CA242E5
:1013C00008BF01241DD01C4CA24208BF022418D023
:1013D0001A4EB24208BF032413D0194CA24208BFD0
:1013E00004240ED0174EB24208BF052409D0164C73
:1013F000A24208BF062404D0144EB2427FF430AF9C
:10140000072432E7BDE8F18F02B909048161704712
:10141000426901EA0203914341EA03418161704755
:1014200080000058F4440258002402580804005870
:10143000000002580004025800080258000C02582C
:10144000001002580014025800180258001C0258DC
:10145000B0B588B0044600234FF4007207A900F02D
:10146000D5F800BBB0200A2306900121002207987E
:10147000254D059104924FF4007703930FF2750206
:1014800002930023CDF8000022A10197284600F026
:10149000F7F808B10E202AE00023042207A920460D
:1014A00000F0B4F808B1022021E038200421079BA5
:1014B000019000915FF001021AA105F5807000F023
:1014C0007DF908B1092012E01C23002219A105F1C1
:1014D000B00000F0DFF908B10C2008E0342300224E
:1014E00019A105F1CC0000F027FA00B11C2008B0CA
:1014F000B0BD000080B580210448FFF789FF64205B
:1015000000F078FAF7E70000B00900200018025850
:1015100000F0B0BA747820617070207468726561F0
:1015200064000000747820617070207175657565C5
:10153000000000007478206170702073656D617028
:10154000686F726500000000747820617070206D13
:10155000757465780000000038B5DFF84840A16870
:101560004A0708D4A36803F00703834201D001208F
:1015700032BD002032BDA168C90840EAC100A060A8
:10158000FFF7ECF8054620688204F2D4FFF7E6F88E
:1015900000F002F8F7D3EAE7401B40F2E931884255
:1015A00070470000044802580248416802788A18CF
:1015B000426070470000002081B00648016841F099
:1015C00002010160006800F002000090009901B083
:1015D000704700BFF444025800B500BF13009646A0
:1015E0009446103928BFA0E80C50FAD85FEA417C35
:1015F00028BF0CC048BF40F8042BC90728BF20F8FB
:10160000022B48BF00F8012B00BD0000F8B518B14F
:101610000468174DAC4201D00220F2BD09B9032085
:10162000F2BD12B1C469944201D20520F2BD114E3F
:1016300033B13468EFF305852C4301D00420F2BDAB
:101640000D4F0E4D3C68AC420BD03468EFF305856E
:101650002C4308D03568EFF305842543B5F1F03FFE
:1016600001D21320F2BD01B0BDE8F04000F024BA71
:101670004554594214000020E80A0020CC00002004
:101680002DE9F84F0024002886B089461746984671
:1016900041D01699B0293ED1119E109DEFF31082D2
:1016A00072B640490B685B1C0B6082F310883E49A0
:1016B000A4460B68A919A1F1010E0146002013E010
:1016C000DA68954205D3D3F810B05D453CBF0025DC
:1016D0000120964504D31A6996453CBF0025012098
:1016E000D3F888300CF1010C304A1268944503D2CB
:1016F000994201D00028E3D08A469B46EFF310813F
:1017000072B628480268521E026081F3108800F009
:1017100033FADA4501D10E243FE00DB13A0001D190
:1017200003243AE0C82E38BF052436D3129F202F59
:1017300028BF0F2431D2DDF84CC0674538BF1824CC
:101740002BD3DDF854E0BEF1010F88BF102424D85C
:10175000174B18491868884208BF1324164B18689D
:10176000EFF30581084308D01968EFF305800143C2
:10177000B1F1F03F38BF13240FD374B91498CDF8EA
:1017800014E004904346CDF80CC0494602975046F9
:101790000196009500F012FA0446204607B0BDE815
:1017A000F08F00BFFC0A0020F00A0020F40A00209D
:1017B000E80A0020CC000020140000202DE9F843A6
:1017C000894617469846002428B30999382922D11A
:1017D000EFF3108272B629490B685B1C0B6082F331
:1017E0001088274905460E6826480021036801E055
:1017F000366B491C994201D2B542F9D1EFF3108101
:1018000072B61E480268521E026081F3108800F012
:10181000B3F9B54201D109242DE05FEA080308BFFE
:10182000032428D03A0005D0112A03D2089FB90812
:10183000914201D205241EE01349086813498842E9
:1018400008BF1324DFF848C0DCF80000EFF305817F
:10185000084309D0DCF80010EFF305800143B1F133
:10186000F03F38BF132406D32CB9494600972846C9
:1018700000F038FA04462046BDE8F283FC0A002056
:10188000E00B0020E40B0020E80A0020CC00002040
:1018900014000020F8B504000D46164623D01C2B7A
:1018A00021D1EFF3108172B61D480268521C02600C
:1018B00081F310881B481C49076800200B6801E071
:1018C0007F69401C984201D2BC42F9D1EFF31081EC
:1018D00072B613480268521E026081F3108800F04D
:1018E0004BF9BC4201D10C20F2BD104A10491068DE
:1018F00088420CD00F4A1068EFF30581084308D0E6
:101900001168EFF305800143B1F1F03F01D21320DC
:10191000F2BD324629462046BDE8F84000F01CBA28
:10192000FC0A0020D80B0020DC0B0020E80A002075
:10193000CC000020140000202DE9F0410446884628
:10194000154600261CB3342B21D1EFF3108172B65B
:1019500022480268521C026081F310882048214905
:10196000076800200B6801E03F6A401C984201D2E2
:10197000BC42F9D1EFF3108172B618480268521ECA
:10198000026081F3108800F0F7F8BC4201D11C26F8
:1019900020E0012D1CBF002D1F261BD1124A134928
:1019A0001068884208BF1326114A1068EFF30581BA
:1019B000084308D01168EFF305800143B1F1F03F0F
:1019C00038BF132606D32EB92A464146204600F0DA
:1019D000EBF906463046BDE8F08100BFFC0A002066
:1019E000F00B0020F40B0020E80A0020CC000020BF
:1019F0001400002070B5EFF3108372B619490C681B
:101A000014B983F3108817E017490968EFF30582CA
:101A1000114302D083F310880EE014498C4202D1A6
:101A200083F3108808E010B983F3108870BD104A62
:101A3000116819B183F31088132070BD04250121AA
:101A400000262563A163C4F88460E06415686D1CFA
:101A5000156083F31088204600F0D6F9D4F884008E
:101A600070BD00BFE80A002014000020CC00002058
:101A7000FC0A002038B50D4D4FF0F034286810F105
:101A80000F3F08D02C6000F061FA00F091FA08488E
:101A90000168491C01602C600648006800F09EFA4D
:101AA00000212960BDE8314000F0B8BA14000020E0
:101AB000FC0A0020080C00202DE9F041D21C07464A
:101AC00088461D469208EFF3108372B6274C2668AD
:101AD00094003E6283F310882146384600F0FEFAF7
:101AE000EFF3108372B610B9396AB142F1D13246C0
:101AF000C8F8000018B183F31088002033E02800F4
:101B00002ED01B4D296819B1102083F310882AE0CC
:101B1000184E9666D766946702F18404C2F87C80FA
:101B2000A16A491CA162B96A4E1CBE6219B97A62E7
:101B30001267526705E0796A11674E6F5667326720
:101B40004A670921012611639663D0642868401C06
:101B5000286083F31088104600F056F9206802E0F0
:101B600083F310881020BDE8F08100BFE80A002050
:101B7000FC0A0020292C00080C4A1068002800D01C
:101B8000704710B50A4C0B4A2168106881420BD08F
:101B90004FF08053084C2360EFF3058020B9EFF33A
:101BA000108062B680F3108810BD00BFFC0A0020D0
:101BB000E80A0020EC0A002004ED00E02DE9F84FCF
:101BC0000F46DDF828800B99054692469B460C9CF3
:101BD000DDF83890EF22404600F0FAFAB0212846AE
:101BE000FFF72EFBAF6205F18807C5F844A0002679
:101BF000C5F848B0C5F80C800B9868612020EC62ED
:101C0000FC60C5F81890C5F81C9078610B994144A8
:101C10004A1E2A610D9884421ABF002400202046E3
:101C2000EC63284938610320286328466965264902
:101C3000AD6500F0D7FAEFF3108172B62348244B5C
:101C400028601868234A18B915602C46AC4606E08F
:101C50001468D4F88CC0C4F88C50CCF888500F9A13
:101C60003C60C7F804C0401C18601B4803685B1C3C
:101C7000012A036017D119480268EFF30580024377
:101C8000B2F1F03F06D3164A146824B1E66BE06A5D
:101C9000E06300E0002481F31088284600F0C4FAD5
:101CA0006CB1E6630BE081F31088EFF3108172B63C
:101CB0000268521E026081F31088FFF75DFF00206A
:101CC000BDE8F28F752D0008A52C00084452485439
:101CD000F40A0020F00A0020FC0A00201400002072
:101CE000EC0A00202DE9F0410D46044616461F4639
:101CF000DDF818803821FFF7A3FAB200A660B8FB20
:101D0000F2F046436560A761276207EB86016762D0
:101D1000E1616061E060EFF3108172B60B480C4A3C
:101D2000206010680B4B18B91C602346254603E061
:101D30001B685D6B5C632C63401C106065632363F0
:101D400081F310880020BDE8F08100BF5545555152
:101D5000E40B0020E00B002070B50D46044616464B
:101D60001C21FFF76DFA6560A660EFF3108172B673
:101D70000A4A0B4B22600B4A106818B91C602346B4
:101D8000254603E01B689D699C616C61401C1060E6
:101D9000A561636181F31088002070BD414D4553FA
:101DA000D80B0020DC0B002070B50D46044616460B
:101DB0003421FFF745FA65602661EFF3108172B6B2
:101DC0000C4B0D4A23600D4802600D4A10680D4B04
:101DD00018B91C602346254603E01B685D6A5C62F7
:101DE0002C62401C10606562236281F31088002021
:101DF00070BD00BF4554554DF92C0008000B002064
:101E0000F40B0020F00B00202DE9F0470646474870
:101E10000568EFF3108472B6AE420BD1F06C002867
:101E20001EBF10F1010F06F14C0000F089FAF169B4
:101E30003F4A11603F4B404918684FF080523F4F76
:101E4000401E1860B06B01285BD10020DFF8F0C0A5
:101E5000B063D6F82080F06ADFF8E8E0B0450CD037
:101E6000D6F82490C8F82490C9F820805EF8209015
:101E7000B1452ED14EF820802BE04FF000084FF0F6
:101E8000010A4EF82080DFF8C080D8F800900AFAE6
:101E900000F039EA0000C8F8000014D1202500261F
:101EA000CCF800503E6084F310881868002802BF08
:101EB0000A60EFF30580002835D1EFF3108062B699
:101EC00080F310882FE090FAA0F0B0FA80F0CCF800
:101ED00000003868864214D1DCF800505EF82560B6
:101EE0003E6084F310881868002802BF0A60EFF390
:101EF0000580002817D1EFF3108062B680F31088B8
:101F000011E084F310883C68A5420CD018680028C2
:101F100002BF0A60EFF30580002804D1EFF31080C0
:101F200062B680F31088BDE8F08700BFE80A0020A1
:101F300048000020FC0A002004ED00E0EC0A00202C
:101F4000F80A00200C0B0020080B002072B6124883
:101F5000016841F0010101604FF0E0200F49C0F835
:101F6000081D0F480D49096801604FF0E0200D4938
:101F700041614FF0070101610021C0F8181D0A49B5
:101F8000C0F81C1D0949C0F8201D704701B500F0BC
:101F900007FABDE801407047001000E000000008AB
:101FA0000C0C00205FEC5300000000FF0000FF401D
:101FB00080B500F051FA00F06BFA0748002101608B
:101FC00041608160C1600161416101624162816281
:101FD000C1628161C16101BDD80B002038B5094AD9
:101FE000342502F5806400954FF4806306A12046F5
:101FF00000F098FA20B92046FFF72AFA00B1FEE770
:1020000031BD00007C050020547820417070206DA7
:10201000656D6F727920706F6F6C00004FF000007B
:102020002A4A1060EFF3148020F0040080F3148833
:1020300062B64FF080504FF0E021C1F8040DBFF3BD
:102040004F8FBFF36F8FFEE72148224A4FF0000306
:10205000016891B10360EFF3098C2CE9F00F1EF0D9
:10206000100F01D12CED108A1B4C4CF804ED2568A3
:10207000C1F808C00DB18D61236072B61168B1B1AD
:10208000016062B64F68144C8D6907F101074F601B
:102090002560D1F808C05CF804EB1EF0100F01D1E8
:1020A000BCEC108ABCE8F00F8CF30988704772B65C
:1020B0001168016009B962B6F9E74FF000674FF0A7
:1020C000E028C8F8047D62B6DCE77047FC0A00200F
:1020D000E80A0020EC0A0020480000202DE9F04327
:1020E0000246EFF3108672B6D0689368851E03EB44
:1020F000C503994202D386F3108862E0324B0D4645
:10210000D3F800E05769C2F820E0401C0023DFF854
:10211000BCC000217C68644520D109B95761012108
:102120003C68E31B083BAB422AD2D4F8049000235E
:10213000D4F80080E1450DD1C7F80080D2F81490A2
:10214000D2F80C80A145A8F10108C2F80C8006D194
:10215000576104E0474620B1401E00E03F6800B1EF
:10216000401E86F31088EFF3108672B6146A744529
:1021700004D0D0685769C2F820E0401C0028C9D1BB
:10218000EBB1581B14280BD307F10800401939682C
:10219000C0F804C00160D3685B1CD3602B46386074
:1021A0007A6090685169C31A083B93608F4204BFFC
:1021B0003868506186F3108807F1080002E086F362
:1021C00010880020BDE8F083E80A0020EEEEFFFF53
:1021D0004018491C1CBFB1F1010100F8012DF9D1D3
:1021E00070470000026922F00702A2F144020D4B81
:1021F00013604FF0000353609360D3601361536129
:102200009361D361136253629362D3621363536326
:102210004FF0FF339363D1634FF080731364826098
:1022200070470000FDFFFFFF2DE9F0410446EFF38A
:10223000108572B6606E20B104F14C0000F0D6F942
:1022400001E00021E164374E374A30684FF0805397
:10225000364F401E3060A16B206B00293ED1002814
:1022600049D0606B002842D12163E16ADFF8C0C029
:102270005CF8210060BB4CF821402E4824624FF0EE
:10228000010E6462D0F800C00EFA01FE4EEA0C0C9A
:10229000C0F800C02848D0F8008041452BD201602A
:1022A000386808B93C6026E0C06B814223D23C60AC
:1022B00085F310883068002802BF1360EFF30580B3
:1022C00000282CD1EFF3108062B680F3108826E04E
:1022D000416A0C624462616220620CE0012818BF0E
:1022E000022808D0606B10B90021A16302E0002031
:1022F000032160632163114C206885F310883D68D9
:10230000A8420CD03068002802BF1360EFF30580AC
:10231000002804D1EFF3108062B680F31088BDE886
:10232000F08100BFFC0A002004ED00E0EC0A002070
:102330000C0B0020080B0020F80A0020E80A0020FF
:102340000168002900D1704711F1010F30B51FD08D
:102350008269EAB921292EBF7C21491E89000D4AD4
:1023600015686A180C4909688A4205D30B4B521A42
:102370001C6822F00302A218116819B900614061BB
:10238000106004E04B69186148610161436182613A
:1023900030BD00BF280000202400002020000020C5
:1023A0002149086800F101000860204B1A683AB121
:1023B000A2F101021A601AB91D4B4FF0010018601A
:1023C0001C490868026822B11B4B4FF001021A60D9
:1023D00008E000F10400194B1A68904201D1184B33
:1023E00018680860124B1A6812B913490868C0B11E
:1023F00001B51149086808B100F00EF90C4B1A68D4
:102400006AB100F019F90F48016841B90E48016836
:102410000E4A13680E480F4A994200D00260BDE888
:102420000140BFF34F8F7047180000204800002084
:102430001C000020280000202C0000202400002088
:1024400020000020FC0A0020E80A0020EC0A0020FE
:1024500004ED00E00000001010B50C4C002104F168
:10246000200021606160202201608021226104F14E
:102470002400FEF7E5FE00220020A260E260606119
:10248000E269A06142F08572E26110BDE80A0020B5
:1024900070B586B01B4C0020002520608021206391
:1024A000194E6060606104F134002562FEF7C8FED9
:1024B00004F1340204F13403A26004F1B40004F521
:1024C000B271E5624FF480622361E06010A5616241
:1024D000A262E06A00210390636A0290A06A0591FB
:1024E000324604912946019004F1B4000093074B51
:1024F000FFF764FB0028ECD10021A061E16106B088
:1025000070BD000018000020352A00084D495441D4
:1025100053797374656D2054696D657220546872C7
:10252000656164002DE9F8430446894615469846DE
:10253000002624B30898342821D1EFF3108172B615
:1025400024480268521C026081F310882248234903
:10255000076800200B6801E0FF6A401C984201D226
:10256000BC42F9D1EFF3108172B61A480268521ECC
:10257000026081F31088FFF7FFFABC4201D1022606
:1025800024E00DB9032621E0B8F1640F38BF052619
:102590001CD3134A13491068884208BF1326124AF5
:1025A0001068EFF30581084308D01168EFF3058048
:1025B0000143B1F1F03F38BF132607D336B9434684
:1025C0002A464946204600F067F806463046BDE8F0
:1025D000F28300BFFC0A0020000C0020040C002045
:1025E000E80A0020CC00002014000020816991B18D
:1025F0000269904205D10A6882420AD100230B6029
:1026000007E0436953611A610B68834204BF91611B
:102610000A60002181617047EFF3108072B60449AF
:102620000A68521C0A6080F310880248FFF7FCBD5C
:10263000FC0A0020CC00002010B511480068EFF320
:10264000108272B600230F4C2360A8B1016B99B9B8
:10265000C1690D4B81611960016A81420CD0C36A66
:10266000C06B834208D10948094C40F8231009493E
:102670000B6850F82300206082F3108810BD00BF63
:10268000E80A00201C000020480000200C0B00205D
:10269000EC0A0020F80A0020F8B50D461F46044653
:1026A00016463421BF08FEF7CBFDBF00A7F1080096
:1026B000A0600221F219E1606560101FA66100218F
:1026C000E76126616661046040F8046D30600E4881
:1026D00070602162EFF3108172B60C4A0C4B2260DD
:1026E0000C4A106818B91C602346254603E01B6895
:1026F0001D6B1C63EC62401C10602563E36281F378
:1027000010880020F2BD00BFEEEEFFFF4554594295
:10271000000C0020040C00202DE9F0410546EFF3E9
:10272000108372B6A868002800F0D4806C4CE96869
:1027300027686C4EB94204D0326812B983F310880E
:10274000CAE0401EA86002D083F31088C0E011B92F
:1027500083F31088C1E001F19402D068401E08BFE5
:10276000002107D0EC6A296B2163CC621169A94270
:1027700008BF2146D0601161A9692869002908BFF6
:10278000002803D1E86083F31088A6E00027012821
:10279000D2F800801CD13068401C306083F3108870
:1027A00013692021184648B10469012C03D1846AB9
:1027B0008C4238BF2146C06A9842F4D1EFF31083AF
:1027C00072B63068401E41453060916098BF8846BF
:1027D000E969012910D92A69012A0DD13168491CFA
:1027E000316083F31088284600F07EF8EFF3108301
:1027F00072B63268521E3260AC69CCB93068401C87
:10280000306083F31088E8682022AA62C16A4145DB
:102810001CBF414600F0B4F8EFF3108072B6326886
:10282000521E3260EF6080F31088FFF7A5F94FE089
:102830002869012804D1E06A2021EF686861A96253
:1028400004F18401C86918B90D622A46AC4605E056
:102850000A6AD2F830C01563CCF82C50EA62401CEA
:10286000C5F830C0C8610120A860E869EC60401E6E
:1028700002D10022AA6107E0226FAA61D4F874C0D5
:10288000C2F874C0CCF87020E8610020A06608602F
:102890003168491C316083F310882B69012B14D1F6
:1028A000E86958B1284600F01FF8EFF3108172B6BE
:1028B000A86908B1C06AA86281F31088F96A414525
:1028C00003D04146384600F05BF82046FFF7ACFCE9
:1028D000002002E083F310881E20BDE8F08100BFD5
:1028E000E80A0020FC0A0020F8B5EFF3108172B668
:1028F000C269012A02D881F310883DE0022A836967
:1029000008D11A6FDB6AD46A9C4238BF826181F3B6
:10291000108831E01C46194E256F37687F1C3760E0
:10292000EE6AE76ABE4238BF2C4681F31088EFF3A7
:10293000108172B68669B34204BFC769BA4204D037
:1029400033461C46C269256F00E02D6F9D42E7D1DA
:102950000A4A15686D1E9C42156009D0226F656F8A
:1029600055672A675A6F2367626714675C678461DB
:1029700081F31088FFF700F90020F2BDFC0A002067
:102980002DE9F04105460C46EFF3108172B6286B35
:1029900048B1D5F89800EC62A04228BF2046E86311
:1029A00081F310883DE0204ED5F82C8037681F4811
:1029B00002680E23921C026001202B630022A86390
:1029C000EA6481F310882846FFF71EFAEFF31080BF
:1029D00072B6D5F89810EC62A14228BF2146E9638F
:1029E00080F310882846FFF71FFCEFF3108172B6C2
:1029F0003268954213D0286B88B9D06AEA6A90424F
:102A000002D3BD420BD104E0EB6B934207D2984254
:102A100005D33560A0453CBF054840F8225081F3FE
:102A20001088BDE8F08100BFEC0A0020FC0A0020FD
:102A30000C0B00202DE9FC410024384988420ED0BF
:102A4000BDE8F38136480322026301258563354AD8
:102A500013685B1C136081F31088FFF7D5F9EFF35F
:102A6000108172B6304A15682B6800930BB1C3F819
:102A700018D0106800232D4D40F8043B2E68B0425A
:102A800004BF2B48006810602A4D2B6081F310882A
:102A9000EFF3108172B6284E23E0002307E0786838
:102AA000BA68FC680028F8D03F6101AB0197386034
:102AB000BB61376081F3108810001CBF204690472F
:102AC000EFF3108872B6019A00213160BA4203D147
:102AD000B9613846FFF734FC88F31088EFF31081B2
:102AE00072B6009898B107460069002201928742A9
:102AF00008BF009205D07A6942611061C0F818D011
:102B0000009038682128CAD320380022CCE72868F2
:102B1000002897D081F31088A1E700BF4D495441A8
:102B2000CC000020FC0A0020280000202400002007
:102B3000200000202C0000203800002070B52C4818
:102B40002C4A016841F4700101601068072100F00F
:102B50000F00072803D2106861F303001060264BB2
:102B600000261D68254845F001051D601E611C6892
:102B700004401C60156805F00F05072D03D9106887
:102B800061F3030010600021002299610020DA61E6
:102B90001B4918621B4A99621B48DA6200211863BC
:102BA000002259639863DA63186400205864196836
:102BB000164821F4802119601A660368DC040BD4DE
:102BC000056843F2D201124A45F480550560116050
:102BD000036823F48053036070BD00000D488168D2
:102BE00041F00201816002689104FCD57047000049
:102BF00088ED00E000200052004402587FEDF6EA24
:102C0000000202020000FF0180020101D4440258C8
:102C10000040005204480258000000000102030472
:102C2000010203040607080970B50246EFF310839A
:102C300072B6906E184CA04202BF02F18404A56ADD
:102C4000A94226D1D16E21B30868144DA84220D1E3
:102C5000886AF0B10025401E956607D0166F556F43
:102C600075672E674D6A954208BF35464D6288628A
:102C7000106B09280DD11021094821600468641CDB
:102C8000046083F310881046FFF7CEFAEFF3108349
:102C900072B683F3108870BD292C00084554594240
:102CA000FC0A002038B5114A1468A06C616C884792
:102CB0000F4A116809B120468847EFF3108072B6B9
:102CC000012100252163A1630A49E5640A68521CB9
:102CD0000A6080F31088EFF3148020F0040080F382
:102CE00014882046BDE83240FFF78EB8E80A00207D
:102CF000000B0020FC0A002010B50446EFF3108200
:102D000072B60D480168491C0160D4F8A40060B196
:102D10000123836082F31088FFF7FEFCEFF310823B
:102D200072B6D4F8A4100029EFD1034803685B1EE3
:102D3000036082F3108810BDFC0A002030B4002527
:102D400012E050F8042BD30744BF4A44521E091F17
:102D5000042942F8045BFAD213468C0744BF15805D
:102D60009B1CC90748BF1D7050F8041B0029E8D1FF
:102D700030BC7047EFF3108372B6016B042907D1A2
:102D800008490A68521C0A6083F31088FFF74CBA9E
:102D9000826ED0F8AC1083F31088130018BF104770
:102DA000704700BFFC0A002010B50749794418316C
:102DB000064C7C44163404E00A68081D89188847CC
:102DC0000146A142F8D110BD7C0000009C0000002B
:102DD0004EF68851CEF20001086840F47000086099
:102DE000BFF34F8FBFF36F8F4FF00170E1EE100A0A
:102DF0007047000000F00FF8002801D0FFF7D4FF63
:102E0000AFF300800020AFF30080AFF30080FEF747
:102E10002FF900F002F80120704700F001B800001F
:102E200000F000F80746384600F002F8FBE7000023
:102E300080B5AFF30080024A11001820ABBEFBE75B
:102E400026000200F9FEFFFFF80B0000180000202A
:102E500000000000F3E1FFFF180000005C0000002C
:102E600000000020000000004EF6A550CFF6F560EF
:102E7000014603B4684680F30988AFF30080FFF78A
:102E8000A7FFFFF7B7FF00000248804702488047CE
:102E900002480047DD2B00083D2B0008692E000882
:102EA000FEE7FEE7FEE7FEE7FEE770470148FDF7B5
:102EB000AFBF00008C0B00200100000000000000EC
:102EC000100000000090D0030090D003F0F0F0F06C
:102ED000FFF7FEBFFFF7FEBFFFF7FEBFFFF7FEBF26
:102EE000FFF7FEBFFFF7FEBFFFF7FEBFFFF7FEBF16
:102EF000FFF7FEBFFFF7FEBFFFF7FEBFFFF7FEBF06
:102F0000FFF7FEBFFFF7FEBFFFF7FEBFFFF7FEBFF5
:0430F000FFF7FEBF29
:0400000508002E6958
:00000001FF
