:020000040800F2
:10000000682F0020D93E0008F13E0008F33E0008AA
:10001000F53E0008F73E0008F93E00080000000029
:10002000000000000000000000000000213F000868
:10003000FB3E000800000000B1330008F532000864
:10004000253F0008293F00082D3F0008313F0008E8
:10005000353F0008393F00083D3F0008413F000898
:10006000453F0008493F00084D3F0008513F000848
:10007000553F0008593F00085D3F0008613F0008F8
:10008000653F0008693F00086D3F0008713F0008A8
:10009000753F0008793F00087D3F0008813F000858
:1000A000853F0008893F00088D3F0008913F000808
:1000B000953F0008993F00089D3F0008A13F0008B8
:1000C000A53F0008A93F0008AD3F0008B13F000868
:1000D000B53F0008B93F0008BD3F0008C13F000818
:1000E000C53F0008C93F000800000000CD3F0008E0
:1000F000D13F0008D53F0008D93F0008DD3F000888
:10010000E13F0008E53F0008E93F0008ED3F000837
:10011000F13F0008F53F0008F93F0008FD3F0008E7
:100120000140000805400008094000080D40000893
:100130001140000815400008194000081D40000843
:1001400000000000000000000000000000000000AF
:100150002140000825400008294000082D400008E3
:100160003140000835400008394000083D40000893
:1001700041400008454000084940000800000000D8
:100180004D40000851400008554000085940000803
:100190005D400008614000086540000869400008B3
:1001A0006D40000871400008754000080000000024
:1001B000794000087D400008814000088540000823
:1001C000894000088D400008000000000000000089
:1001D0000000000000000000914000080000000046
:1001E000000000000000000000000000000000000F
:1001F0000000000000000000954000089940000841
:100200009D400008A140000800000000A540000833
:10021000A9400008AD400008B1400008B540000802
:10022000B940000800000000BD40000800000000C8
:10023000C1400008C540000800000000C940000897
:10024000CD400008D1400008D5400008D940000842
:10025000DD400008E1400008E5400008E9400008F2
:10026000ED400008F1400008F5400008F9400008A2
:10027000FD400008014100080541000800000000A1
:10028000094100080D41000811410008154100080E
:1002900000000000194100081D4100080000000096
:1002A0000000000021410008254100082941000804
:1002B0002D4100083141000835410008394100084E
:1002C0003D410008FD3E0008414100082DE9F0478E
:1002D00004460025D4E900010201A846DFF8807732
:1002E00022D5636E4BB1B3F5801F0BD0B3F5001F61
:1002F00015D0B3F5401F09D014E0FA6942F400327A
:10030000FA6105E0022100F0A7FB054628000AD1AA
:10031000396C606E21F440110143396404E000F04F
:1003200095FBF2E70125A846D4E90001C3051CD5D9
:10033000A26D042A17D8DFE802F0030E12050500AB
:1003400000F07AFB28000FD1396CA06DC90840EA93
:10035000C101396409E000F07EFB0546F2E70021A7
:1003600000F070FBF9E70125A846D4E90001420539
:1003700004F1840625D5336A73B1B3F5001F16D096
:10038000B3F5800F17D0B3F5C00F1CBFB3F5000F46
:10039000B3F5200F02D012E000F04EFB28000FD181
:1003A000B96C306A21F460010143B96409E000F0DE
:1003B00052FB0546F2E7002100F044FBF9E7012576
:1003C000A846D4E90001020525D5736A73B1B3F1DB
:1003D000807F16D0B3F1007F17D0B3F1407F1CBFF0
:1003E000B3F1806FB3F1A06F02D012E000F024FBF4
:1003F00028000FD1B96C706A21F0E0610143B96443
:1004000009E000F028FB0546F2E7002100F01AFBA6
:10041000F9E70125A846D4E9000182011AD5E36C69
:1004200043B1102B04D0202B0DD0302B02D00FE085
:1004300000F002FB28000CD1F96BE06C21F03001D8
:100440000143F96306E0022100F006FB0546F1E7EF
:100450000125A846D4E90001C20423D5E36D63B1A8
:10046000B3F5805F14D0B3F5005F15D0B3F5405FEE
:1004700018BFB3F5804F02D012E000F0DDFA28007B
:100480000FD1396CE06D21F4E0410143396409E09A
:1004900000F0E1FA0546F2E7002100F0D3FAF9E7AF
:1004A0000125A846D4E90001820422D5236E93B128
:1004B000B3F5803F0BD0B3F5003F15D0B3F5403F07
:1004C0001CBFB3F5802FB3F5A02F04D00FE001219E
:1004D00000F0C2FA054628000AD1396C206E21F4DA
:1004E000E0210143396404E000F0ABFAF2E70125B2
:1004F000A846D4E90001420422D5B36A93B1B3F10E
:10050000805F0BD0B3F1005F15D0B3F1405F1CBF2B
:10051000B3F1804FB3F1A04F04D00FE0012100F000
:100520009BFA054628000AD1B96CB06A21F0E04177
:100530000143B96404E000F084FAF2E70125A8461B
:10054000D4E9000102041AD5E36E43B1B3F1805F30
:1005500003D0B3F1005F0BD00FE000F06DFA28007C
:100560000CD1396CE06E21F040510143396406E052
:10057000012100F071FA0546F1E70125A846D4E90A
:100580000001C30118D5A26C032A13D8DFE802F0DA
:1005900004020D0400F050FA28000CD1F96BA06C95
:1005A000890840EA8101F96306E0022100F054FA6B
:1005B0000546F1E70125A846D4E9000143023FD5ED
:1005C000DFF8A094D9F8002042F48072C9F8002026
:1005D00000F028FB8246D9F80000C10506D400F0DF
:1005E00021FBA0EB0A006528F5D327E0280026D1DF
:1005F000386EF16A00F4407001F4407188420BD00B
:10060000386E396E41F4803139663A6E20F44070AC
:1006100022F480323A663866F06AB0F5807F2BD1DA
:1006200000F000FB8146386E820725D400F0FAFA0C
:10063000A0EB090041F289318842F4D30325A84692
:100640002278D10738D5A06F68B1082807D01028C4
:100650002DD018281CBF2028282804D02AE00121EA
:1006600000F0FAF90546280025D1796CA06F21F039
:100670003801014379641FE0F06A00F44072B2F57A
:10068000407F09D13968DFF8E02302EA101221F433
:100690007C511143396003E03B6823F47C533B6099
:1006A000386EF16AC1F30B0108433866C8E700F001
:1006B000C8F9D7E70125A84621788A0719D5606FC0
:1006C000052814D8DFE800F0070310070707012109
:1006D00000F0C2F9054628000AD1796C606FC9089C
:1006E00040EAC101796404E000F0ABF9F2E70125CA
:1006F000A84621784A0719D5F068052814D8DFE8FC
:1007000000F0070310070707012100F0A5F90546CF
:1007100028000AD1B96CF068C90840EAC101B9647F
:1007200004E000F08EF9F2E70125A84621788A0658
:1007300021D5B06888B1B0F1805F0BD0B0F1005F17
:1007400014D0B0F1405F1CBFB0F1804FB0F1A04FAA
:1007500003D00EE000F07FF9054628000AD1796C3D
:10076000B06821F0E0410143796404E000F06EF9E3
:10077000F2E70125A84621784A0621D5706988B19B
:10078000B0F5806F0BD0B0F5006F14D0B0F5406FAE
:100790001CBFB0F5805FB0F5A05F03D00EE000F0A5
:1007A0005AF9054628000AD1B96C706921F4E05164
:1007B0000143B96404E000F049F9F2E70125A846D5
:1007C00021780A0621D5B06988B1B0F5005F0BD059
:1007D000B0F5804F14D0B0F5C04F1CBFB0F5004F3E
:1007E000B0F5204F03D00EE000F035F905462800A3
:1007F0000AD1B96CB06921F460410143B96404E0E5
:1008000000F024F9F2E70125A84621780A0710D55F
:10081000D4F88000B0F5805F04D100F017F908B17A
:100820004FF00108796CD4F8800021F44051014365
:1008300079642178CA060ED53069B0F5807F04D17D
:1008400000F004F908B14FF00108B86C326920F4E7
:1008500040701043B864D4E90001030319D5F2696C
:1008600032B1B2F5803F0FD0B2F5003F03D00EE0B9
:1008700000F0F1F8054628000AD1B96CF06921F4BE
:1008800040310143B96404E000F0E0F8F2E70125EB
:10089000A846D4E9000143031BD53268B2F5801F96
:1008A00006D0B2F5001F0ED0B2F5401F02D00EE008
:1008B00000F0C2F828000BD1796C306821F44011A7
:1008C0000143796405E000F0BCF80546F2E7012534
:1008D000A846D4E90001C30317D5226D1AB1B2F5B9
:1008E000803F0BD00FE000F0A7F828000CD1F96B87
:1008F000206D21F480310143F96306E0022100F00C
:10090000ABF80546F1E70125A846D4E900018300CC
:1009100004D500F09BF808B14FF00108D4E90001BC
:1009200082031AD5E36F6BB1B3F5807F06D0B3F5C0
:10093000007F18BFB3F5407F04D00CE0FA6942F4A1
:100940000032FA612A0007D17B6CE26F23F4407316
:1009500013437B6401E00125A846C20205D53B6C28
:10096000226F23F0004313433B64850205D53B6CA3
:10097000A26E23F0807313433B64450009D5D7F87A
:1009800000C02CF4004CC7F800C03B68326B134326
:100990003B60002805D5FB6B626D23F04053134389
:1009A000FB63050205D57B6C726823F44003134397
:1009B0007B6411F0010104D000F04DF8010018BF74
:1009C0008046D4E9000111F0020305D0012100F0B6
:1009D00043F8010018BF8046D4E9000111F0040378
:1009E00005D0022100F038F8010018BF8046D4E994
:1009F000000111F0080305D0002100F023F80100E8
:100A000018BF8046D4E9000111F0100304D000F0B3
:100A100018F8010018BF8046D4E9000111F0200346
:100A200002D000F013F820B9B8F1000F08BF002081
:100A300000D00120BDE8F087F86940F40030F8618B
:100A40007047012104F1280000F068B8022104F188
:100A5000280000F063B8002104F1080000F006B897
:100A60001044025800480258CFFFFF00F8B500F0CC
:100A7000CFF801D10120F2BD316821F080613160F1
:100A800000F0D0F807463068010106D500F0CAF83A
:100A9000C01B0328F7D30320F2BDB06A296820F4F5
:100AA0007C3040EA013000F097F8B063F16A686981
:100AB00021F0C00100F0A8F8A86921F0200100F0A1
:100AC000A3F821F01001F162F06B00F07FF8F06301
:100AD000F06A40F01000F0621CB9F06A40F40020A7
:100AE00004E0012C04D1F06A40F48010F06203E0CD
:100AF000F16A41F40011F162326842F080623260C2
:100B000000F090F804463068010105D400F08AF83E
:100B1000001B0328F7D3BEE70020F2BDF8B500F0B4
:100B200077F801D10120F2BD316821F080513160A8
:100B300000F078F807463068810006D500F072F8BA
:100B4000C01B0328F7D30320F2BDB06A296820F048
:100B50007C7040EA015000F03FF83064F16A686947
:100B600021F4406100F050F8A86921F4007100F010
:100B70004BF821F48071F162706C00F027F870641A
:100B8000F06A40F48070F0621CB9F06A40F48000B2
:100B900004E0012C04D1F06A40F40000F06203E0AC
:100BA000F16A41F08071F162326842F08052326045
:100BB00000F038F804463068810005D400F032F8BF
:100BC000001B0328F7D3BEE70020F2BDE9696FF3ED
:100BD000CF0040EAC1007047B062A9686868EA685F
:100BE000491E4902401EC0F30800521E01F47E4116
:100BF00012040843296902F4FE021043491E090643
:100C000001F0FE41084370470143F162F16A704709
:100C10000546034EB06A0C4600F0030003287047F7
:100C20000044025801484068704700BF000000209F
:100C3000F8B5040029D02078DFF87454C10711D525
:100C40002869A96A00F03800102805D0182804BFC8
:100C500001F0030102292CD129688A0302D56068BA
:100C6000002812D021788A0765D52869A96A10F072
:100C7000380005D0182808BF11F0030F40F08E800F
:100C8000E06829684A0702D5002800F0F181296848
:100C900021F0190108432860FFF7C4FF06462868C1
:100CA000410741D4FFF7BEFF801B0328F7D3032081
:100CB000F2BD6068B0F5803F0FD038B9296821F4E3
:100CC00080312960286820F4802009E0B0F5A02F49
:100CD00008D1296841F480212960286840F48030D7
:100CE000286007E02A6822F480322A60296821F40B
:100CF00080212960606858B1FFF794FF0646296893
:100D00008803AFD4FFF78EFF801B6528F7D3CEE7AB
:100D1000FFF788FF064628688103A3D5FFF782FF07
:100D2000801B6528F7D3C2E76868216920F0FE4080
:100D300040EA016068602078C10619D52869A96A6F
:100D400000F03800082805D0182804BF01F003017E
:100D5000012946D12868C10503D5E269802A40F0FF
:100D60008781E868216A20F07C5040EA0160E860F1
:100D70002278110767D56069002854D0696F41F067
:100D800001016967FFF74EFF0646686F81075AD475
:100D9000FFF748FF801B0328F7D388E7E06880B19E
:100DA000296821F0190108432860FFF73BFF064638
:100DB00028684107B8D4FFF735FF801B0328F7D315
:100DC00075E72A68520852002A60FFF72BFF064693
:100DD00028684107AFD5FFF725FF801B0328F7D30D
:100DE00065E7E06978B1296841F080012960FFF783
:100DF00019FF06462868C105B3D4FFF713FF801B0F
:100E00000328F7D353E72A6822F080022A60FFF70D
:100E100009FF06462868C105AAD5FFF703FF801B16
:100E20000328F7D343E7686F400840006867FFF77F
:100E3000F9FE0646686F810705D5FFF7F3FE801BB4
:100E40000328F7D333E721788A0621D5A0692968DA
:100E500000280ED041F480512960FFF7E3FE0646DA
:100E60002868810414D4FFF7DDFE801B0328F7D324
:100E70001DE721F480512960FFF7D4FE064628685B
:100E8000810405D5FFF7CEFE801B0328F7D30EE7BC
:100E90002078420748D5874F396841F4807139601E
:100EA000FFF7C0FE06463868C10505D4FFF7BAFE55
:100EB000801B6528F7D3FAE6A068012804D1286FC3
:100EC00040F00100286713E008B9286F09E0052801
:100ED000286F06D140F004002867296F41F0010116
:100EE00005E0400840002867296F21F004012967C8
:100EF000A06841F2893658B1FFF794FE0746286F83
:100F0000810711D4FFF78EFEC01BB042F7D3CEE6A7
:100F1000FFF788FE0746286F810705D5FFF782FE99
:100F2000C01BB042F7D3C2E6606A002800F0BE8062
:100F30002969614E01F03801182973D02968022807
:100F400021F08071296061D1FFF76CFE07462868A7
:100F5000810105D5FFF766FEC01B0328F7D3A6E67F
:100F6000AB6AA16A5548E26A03400B4343EA0213A5
:100F7000AB62616B206BA26B491E4902401EC0F33D
:100F80000800521E01F47E4112040843E16B02F492
:100F9000FE021043491E090601F0FE410843286382
:100FA000E86A40084000E862696BA06C0E4046EABF
:100FB000C0066E63E96A206C21F00C010143E9620E
:100FC000E96A606C21F002010143E962E96A41F4D7
:100FD0008031E962E86A40F40030E862E96A41F48D
:100FE0008021E962E86A40F00100E862296841F086
:100FF00080712960FFF716FE04462868810155D4E8
:10100000FFF710FE001B0328F7D350E6FFF70AFE98
:1010100004462868810149D5FFF704FE001B032818
:10102000F7D344E60128A96A2A6B21D0A36A01F00C
:101030000300984202BFC1F30510E16A884217D14C
:10104000236BC2F30800401C984201BFC2F3462044
:10105000401C616B88420BD1A16BC2F30640401C5F
:10106000884201BFC2F30660401CE16B884201D098
:101070000120F2BD686BA16CC0F3CC00814215D099
:10108000E86A40084000E862FFF7CCFD0546FFF73C
:10109000C9FD401BFBD00648416BA26C0E4046EADE
:1010A000C2064663C16A41F00101C1620020F2BD7F
:1010B00000440258004802580700FFFF0CFCFFFFE5
:1010C00078B589B06846002100220023002480E81A
:1010D0001E0000F05CFA012187228DF800101F210C
:1010E0008DF8081001218DF8014068460194DFF861
:1010F000E4538DF80920ADF80A408DF80C108DF8F6
:101100000D10ADF80E40DFF8D04300F057FA042080
:1011100000F047FA00F084FA00F065F900F0B1F948
:10112000142101A800F0AAFADFF8B003026842F027
:1011300020020260016801F0200100F050F943F044
:1011400080030360016801F0800100F048F943F07A
:1011500001030360016801F0010100F040F943F070
:1011600002030360016801F0020100F038F943F066
:1011700008030360016801F0080100F030F9002263
:1011800043F040030360006800F0400000900099C5
:101190002846FF2100F06AFB00228021204600F053
:1011A00065FBFF2100F014F92846049300F07EFA55
:1011B000802100F00DF920460493C94C00F076FA26
:1011C0000A22002062610222226204226264C5496E
:1011D000E264002362652022A060E060A074012028
:1011E00021600D21E2650422A0616062A062E062DC
:1011F000206320462382E1616363A363E363236486
:10120000A3642365A36523666366A26600F052FBB0
:1012100008B100F07BF90A2304F1A00000F0C0F847
:101220000022C364B0494365202301600025826029
:101230000121C26082740D22C3650423058200F07F
:10124000B5F808B100F062F90A2304F5A07000F0C7
:10125000A7F8A649C3640D2243652023016001213C
:10126000C36504238560C5600582857400F09EF81F
:1012700008B100F04BF92421684600F0FFF99C48C2
:1012800004F54475C4F81003284600F0FFFC08B1CB
:1012900000F03CF900210022009128460291012132
:1012A000039169460192049200F004FD08B100F038
:1012B0002DF910226946284600F0FCFC08B100F028
:1012C00025F9002304F5F07083608A494FF08063AC
:1012D0000160836100214FF4800281630325C163B3
:1012E0004FF080434260C56001614161C1610162AC
:1012F00041628162C1624363016441648164C1648B
:1013000001654165816500F07DFD08B100F0FEF8E2
:10131000002004F51A75784AA860784E28610121EA
:101320006861A861E861286228462A606E60E96009
:1013300000F018FE08B100F0E9F80021284600F09E
:101340006FFE08B100F0E2F80021284600F07EFEB2
:1013500008B100F0DBF86A4800216865012204F555
:101360002F74AE65E96520462A666966A966E96656
:101370002967696700F0F6FD08B100F0C7F80021A1
:10138000204600F04DFE08B100F0C0F800212046D4
:1013900000F05CFE08B100F0B9F800F0CFFEFEE707
:1013A0004361022303620423436470478161C26185
:1013B00041628162C162016345638563C5630564FF
:1013C00085640565856505664566836600F072BAC5
:1013D000012201910023029201A903937047009119
:1013E000009A0368704780B59CB04C2109A800F0B2
:1013F00045F9202101A800F041F9022000F0C0FECB
:10140000002000903F48026822F4404202600168D8
:1014100001F440410091009A01688B04FCD54FF41F
:10142000803101220A912C210992022315910C216D
:1014300016920022129309A81393149317931893EA
:1014400019911A921B92FFF7F3FB08B100F05EF8B6
:101450003F21032201910821029240220491402160
:101460000592002306914FF48062089103210393B3
:1014700001A8079200F0ACFE08B100F047F81DB0DB
:1014800000BD10B5AEB0B8216846192400F0F6F8DA
:101490004FF400420023CDE900230222A021049250
:1014A000684605920692202208924FF0005202945C
:1014B0000391079309931B92FEF708FF08B100F010
:1014C00025F82EB010BD00680F49884208BF01F012
:1014D00071B870470004025800180258E0440258DE
:1014E000B025002000A0004000A4004000D400402F
:1014F000007400400050014000540040724E4060B3
:10150000005800401848025800E0004072B6FEE75C
:101510000901020002D43C48815470473B4B02F061
:101520000F029A1802F8041C704739490A6860F3E0
:101530000A2240F2FA5060F31F420A60704770B509
:10154000334B1C68C4F302230124C3F10705052DA6
:101550002EBF0F2504FA05F56D1E1E1D072E34BF84
:101560000023DB1E2940994004FA03F35B1E1A4056
:101570001143BDE87040CBE7010007D4012200F021
:101580001F018A40234B400943F820207047BFF3D6
:101590005F8F21480022016821F4803101600267D9
:1015A00070471D4940F001000867086840F480302A
:1015B0000860BFF34F8FBFF36F8F704710B542784D
:1015C00016490A608B685B085B008B6042684A6062
:1015D000C27A037B447B120642EA0372837A42EAB0
:1015E000C342837B42EA8442C47B42EA4342437A59
:1015F00042EA0442047A007842EA032242EA4402C0
:1016000002438A6010BD000000E400E018ED00E035
:101610000CED00E000E100E024ED00E098ED00E0DA
:1016200038B50320114DFFF780FF00F0D5FE1049BB
:10163000104A0B68C3F30323D45C096801F00F015F
:10164000525C04F01F04E0400B4C02F01F0220FA31
:1016500002F3236028600F2000F0B4FF08B10120DE
:1016600032BD00F0F3FF002032BD00000C0000206E
:1016700018440258603C000810000020002201F0CD
:1016800055B90EE002684368821808305FEAC37CEF
:1016900044BF4B445B1E52F804CB43F804CB091FF4
:1016A000F9D150F8041B0029ECD170472DE9F84F0F
:1016B0000027DFF8D0814FF0B045DFF8CC9102462B
:1016C0000B462EE0714CA24214BF0A2409248C4020
:1016D00044EA0E046E49C64341F82C4029685C6810
:1016E0003140E40248BF0143296069685C683140C9
:1016F000A40248BF01436960D8F804105C68314017
:10170000A40348BF0143C8F80410D8F8001006EA43
:10171000010C5968C90348BF40EA0C0CC8F800C066
:101720007F1C186830FA07F100F09E800121B94053
:101730000840F5D04FEA470C032404FA0CF46FEA92
:10174000040E5C6804F00306012E1CBF04F00304C1
:10175000022C10D19468DE680EEA040406FA0CF636
:1017600034439460546824EA01015C68C4F30014B3
:10177000BC40214351601C79B90004F00304032CE0
:1017800020D0D4689E680EEA040406FA0CF63443AE
:10179000D4601C7904F00304022C13D1FE084FF02E
:1017A0000F0A02EB860401F01C060AFA06FAD4F8C6
:1017B00020B02BEA0A0BD3F810A00AFA06F646EA84
:1017C0000B06266214680EEA04061C7904F0030472
:1017D00004FA0CF444EA060CC2F800C05C6814F485
:1017E000403F9DD0D9F800404FEA970C01F00C0122
:1017F000284E44F00204C9F80040D9F800E00EF089
:10180000020ECDF800E0009CDFF884E05EF82CE0EA
:101810000F248C40B2422EEA040E08BF002422D0CE
:101820001D4CA24208BF01241DD01C4CA24208BF7F
:10183000022418D01A4EB24208BF032413D0194C08
:10184000A24208BF04240ED0174EB24208BF05249E
:1018500009D0164CA24208BF062404D0144EB2424E
:101860007FF430AF072432E7BDE8F18F02B90904F5
:1018700081617047426901EA0203914341EA0341F1
:101880008161704780000058F444025800240258D7
:1018900008040058000002580004025800080258CA
:1018A000000C025800100258001402580018025888
:1018B000001C0258F8B5040035D02068DFF8B45396
:1018C000A84204BFDFF8B013616004F18406307DE4
:1018D00020B900212046717500F0EFFE00F0C3F939
:1018E0000746206881690A0705D5FFF79BF9C01BE9
:1018F0000B28F6D30FE0816941F001018161FFF708
:1019000091F9074620688169CA070DD4FFF78AF963
:10191000C01B0B28F6D304F184000322816941F037
:1019200001018161027585E1816941F002018161F6
:10193000207C0128206881690CBF21F0400141F022
:1019400040018161607C0128206881690CBF41F4FD
:10195000804121F480418161A07C01282068816957
:101960000CBF21F4805141F48051816121688A6962
:10197000A06822F4407202438A612068816921F0E4
:10198000A40181612068026922F010020261E0680E
:10199000012804D12068816941F0040113E0B8B145
:1019A00021680228886910D040F080008861206892
:1019B000016941F010010161E068032808D1206845
:1019C000816941F02001816102E040F020008861DE
:1019D000E069A1696269401E0002491E40EA416057
:1019E000216A521E491E0843216840EA0240C8612C
:1019F000A268B2F5407F0FD1A06AE16A226B401E57
:101A0000491E40EA0120521E616A40EA0210226823
:101A1000491E40EA0140D060206E30B12068D0F805
:101A2000C020616E0A43C0F8C020E06D216EDFF86F
:101A30004C22081807D02068D0F8C830A76E00F0F4
:101A40000CF9C0F8C830206C38B12068D0F8BC3030
:101A5000676C00F002F9C0F8BC30A06C58B1206887
:101A6000D0F8BC10E36C52F8237021F0700141EA09
:101A70000711C0F8BC10206D58B12068D0F8BC1018
:101A8000636D52F8232021F4E06141EA0221C0F89D
:101A9000BC102068A84204D1606881688908890068
:101AA00081600020002130610122B161327520681F
:101AB000616BDFF8CC21D0F8845000F0CAF8C0F890
:101AC00084502068D0F88430A56B23F47F0343EA68
:101AD0000543C0F88430A06B41182068D0F88850C6
:101AE00000F0B7F8C0F888502068D0F88830E56B6F
:101AF00000F0AAF8C0F88830E06B01EB40012068E4
:101B0000D0F8A05000F0A5F8C0F8A0502068D0F898
:101B1000A030256C00F098F8C0F8A030236C606C01
:101B200000FB03112068D0F8B05000F092F8C0F824
:101B3000B0502068D0F8B030A56C00F085F8C0F83F
:101B4000B030A36CE06C00FB03112068D0F8AC50FF
:101B500000F07FF8C0F8AC50236D606D00FB0311FE
:101B60002068D0F8F05000F074F8C0F8F050206809
:101B7000D0F8F030A56D23F47C1343EA0543C0F898
:101B8000F0302068D0F8C030A56D01EB45011A4057
:101B900042EA8102C0F8C0202068D0F8C010E26D8F
:101BA00021F47C1141EA0241C0F8C0102068D0F84D
:101BB000C010226E21F07C5141EA0261C0F8C010D1
:101BC000A26B236C606BA56DDFF8B81001EB800190
:101BD000E06BE16601EB8202226702EBC002606CFF
:101BE00062674343E06C02EB8302A36CA26743434A
:101BF000606D02EB8302236DE267434302EB8302D5
:101C0000C4F8802002EBC5023260A06EE36D43434E
:101C100002EB83027260246E604302EB8002DFF805
:101C20006800F26082420AD3B169032241F02001C8
:101C3000B16132750120F2BD002041F8040BF26859
:101C40009142F9D30020F2BD23F4FE0343EA054399
:101C50007047154045EA8105704752F82710DB08A8
:101C600041EAC30370472068816921F01001816156
:101C7000FEF7D8BF00A0004000A10040403D000892
:101C80000300FFFF00AC0040FDD3004010B504008E
:101C900001D1012010BD207920B9002120466171B9
:101CA00000F0E2FC022000212071012221610020CD
:101CB000227110BD2DE9F04104000D46164614BFF7
:101CC000002D012028D06079012808BF022023D0F0
:101CD00001210222617106F0100722712868042890
:101CE00030D1FEF79FFF002E804641D12068444E40
:101CF000416B314211D0FEF795FFA0EB080002289E
:101D0000F4D32068416B3142F0D02069032140F0C8
:101D1000080020610320217170E0AA690264206834
:101D200040F2FF32BA40816CEB699143FF22BA4026
:101D3000BB40194381642068C16C2B6A9143BB404E
:101D40001943C1642869012808D120681F22BA40BC
:101D5000816B6B699143BB40194381632168072004
:101D6000B840CA6B8243E86801281AD1002320E0FA
:101D70002068416B002911D5FEF754FFA0EB080045
:101D80000228F5D32068416B0029F1D52069032290
:101D900040F008002061032022712FE0A96941640E
:101DA000BDE7022808BF012303D0A868431E9B415A
:101DB000DB0F2E68A86806433343BB401A43CA634F
:101DC00020684FF48042BA4040F6FE73BB40016881
:101DD0009143C0220160206801686D689943002327
:101DE000BD4029430160206802FA07F7016821EA33
:101DF000070707600120207100206371BDE8F081B2
:101E00000080002070B504003FD00020DFF848318A
:101E1000A0622068DFF84411DFF8442198421CBF1B
:101E20009042884202D0E568102D2ED2E668E56B1C
:101E30000836F6086D096D1C754398421CBF904228
:101E4000884220D0082D20D804F18005697821B976
:101E500000202870204600F008FD02226A702068E9
:101E6000016849084900016023689B68A069B0F1D6
:101E7000806F03F4F81316D16068B0F5800F06D1B7
:101E8000A06B80B909E0102DDED9012070BD0028BB
:101E900004BFA16BB1F1805F05D12268106840F4E6
:101EA000805011460860626850020AD5E16807292F
:101EB00007D321680A68206D22F4807202430A6009
:101EC00004E02068016821F480710160E269A06A81
:101ED000E16B266802431343E2680B431343B3608C
:101EE000636B606AA16BA2692668034320690B4398
:101EF00061691343226A034360680B43E16C134337
:101F0000A2680343A06C0B43A16D134303430B432F
:101F1000F360606858B920680121826861F3CC22BF
:101F2000022182602068826861F34A228260206810
:101F3000016D4908490001656068410206D52168C4
:101F4000CA68606D22F000420243CA60002101228B
:101F5000696000206A7070BD00300140003C0040A4
:101F60000038004038B5040001D1012032BD04F131
:101F70004005687820B900212046297000F012FC45
:101F800000F045F86068226820F0706010612068F9
:101F9000816821F400418160E268A068012A0CBFD9
:101FA00040F4004040F4044021688860E068022862
:101FB000206841680CBF41F4006121F40061416078
:101FC0002068416841F0007141F40041416020689F
:101FD000C26822F40042C26021696069A269236874
:101FE000014341EA0221D960E169206A2268014384
:101FF0001160206800210022036843F001030360A0
:1020000020206960687000202263A97032BD2420FE
:102010006870206801684908490001607047000045
:1020200030B500F140025378202B0DD11478012CEB
:102030000AD000F01FF81D6825F480551D60036864
:102040001C682143196020E0022030BD30B500F14A
:1020500040025378202B0BD11478012C08D000F0CB
:1020600009F81C6824F4706444EA01241C600CE044
:10207000022030BD012324251370557003681C68AD
:10208000640864001C6003687047006800230168EE
:1020900041F001010160202050700020137030BD1C
:1020A000F8B588B0044600234FF4007207A900F089
:1020B00057FCF8B9B0200121069000220A230798A6
:1020C000254D059104920A2603934FF40077009062
:1020D000002302960FF25102CDF8047020A1281DB2
:1020E00000F078FCE0B900233A462946204600F08B
:1020F00037FC08B1022014E0B02001210690002234
:10210000286805910492002300900FF2350203968F
:1021100017A1029605F1B400019700F05BFC00B135
:102120000E2009B0F0BD000080B580210B48FFF7FC
:10213000A1FB4FF4FA7000F0EBFCF6E700F028BDCD
:1021400080B54FF480710548FFF794FB4FF47A7027
:1021500000F0DEFCF5E70000D4280020001802584B
:10216000747820617070207468726561640000008A
:102170007478206170702074687265616432000048
:1021800038B5DFF84840A1684A0708D4A36803F0CF
:102190000703834201D0012032BD002032BDA16877
:1021A000C90840EAC100A060FEF73CFD0546206872
:1021B0008204F2D4FEF736FD00F002F8F7D3EAE726
:1021C000401B40F2E9318842704700000448025841
:1021D0002DE9F041040088465AD0DFF8A87338682A
:1021E00000F00F00404502D200F0D0F850D1207826
:1021F000DFF89453420706D52069A96901F0700100
:10220000814200F0E2F82078020706D56069E969AA
:1022100001F07001814200F0D1F82078C20606D5A5
:10222000A069E96901F4E061814200F0C0F820781A
:1022300082060AD5E069296A01F07001814204D260
:102240002A6A22F07002104328622078820706D59D
:10225000E068A96901F00F01814200F0A1F820783F
:10226000C20731D5A969A06821F470610143A96151
:102270006068022802D129688A0308E0032802D195
:1022800029688A0103E0012803D12968CA0503D41B
:102290002CE02B68590729D52A69D20840EAC200E8
:1022A0002861FEF7BFFC06462869616800F0380027
:1022B000B0EBC10F08D0FEF7B5FC801B41F28932AC
:1022C0009042F1D303205FE02078820706D5E068D2
:1022D000A96901F00F01884200F062F8386800F047
:1022E0000F00804504D200F051F801D001204BE0EE
:1022F0002078420706D52069A96901F0700188425B
:1023000000F063F82078020706D56069E96901F0FA
:102310007001884200F052F82078C20606D5A06904
:10232000E96901F4E061884200F041F82078810613
:102330000AD5E0692A6A02F07002904204D2296A42
:1023400021F070010843286200F046F8AA69DFF81E
:102350004C12C2F303228B5CAC69DFF8305204F0FC
:102360000F04095D03F01F03D840DFF8243201F0A9
:102370001F0120FA01F21A602860DFF81C020068D1
:10238000BDE8F04100F01EB9BDE8F08139680909E7
:1023900048EA011139603A6802F00F02424570477D
:1023A00004D2AA69120940EA0210A861704704D257
:1023B000EA6922F4E0621043E861704704D2EA69F6
:1023C00022F070021043E861704704D2AA6922F03B
:1023D00070021043A861704730B56B4B6D481969A6
:1023E00011F0380104D010290AD018290AD069E068
:1023F0001A68940667D51968C1F3C101C84030BD99
:10240000684830BD9C6A996ADD6A5A6B05F001051F
:10241000C1F30511C2F3CC025543002900EE105A56
:10242000B8EE400A4CD014F0030400EE901AF8EE17
:10243000600A02D0022C20D022E019689FED4D1ACC
:1024400020EE010A8A0608D51968C1F3C101C84007
:1024500000F03CF8C1EE200A03E09FED472AC2EEEF
:10246000200A186BF7EE001A00F02EF831EE000A81
:1024700070EE211A20EEA10A13E09FED402A01E040
:102480009FED3F2A186BDFED3B1AC2EE200A00F0E9
:102490001BF800EE211AB7EE000A31EE000A20EE1A
:1024A000800A186BC0F34620401C00EE900AF8EE3C
:1024B000600A80EE200ABCEEC00A10EE100A30BDA1
:1024C000002030BD384830BDC0F3080001EE100ACE
:1024D000B8EE411A704710B5FFF77EFF334A2F4B15
:1024E00011681268294CC1F30321595C02F00F02F4
:1024F00001F01F01C84020609A5C254902F01F02CC
:10250000D040086010BD80B5FFF7E5FF00F007F888
:10251000C3F30222895C01F01F01C84002BD244AB6
:102520001E491368704710B53F2202601C4A1368A9
:1025300003F007034360946804F470648460936854
:1025400003F00F03C360946804F070040461D3685F
:1025500003F070034361D46804F4E0648461126999
:1025600002F07002C2610748036803F00F030B60BA
:1025700010BD0000000000390024744C20BCBE4B8C
:102580000024744A00200052004402580C0000202D
:10259000100000200090D00308000020603C0008DC
:1025A0001044025840787D0100093D00184402584B
:1025B0001C4402580248416802788A1842607047F9
:1025C0000000002010B50446102C8AB030D2002242
:1025D0002146A120FEF7B3FFA120FEF7CDFF16484C
:1025E000046016480168164C41F080710160026871
:1025F00001A902F080720092009802A8FFF793FFF1
:10260000FFF781FF40000F4B0F4940F2E732B0FB6C
:10261000F3F02160401E60600021E26020462161ED
:10262000A16000F0D7FA18B9204600F0E0FA00E007
:1026300001200AB010BD000008000020EC44025840
:10264000DC2A002040420F0000E0004081B0DFF8AB
:10265000A402016841F002010160006800F002007C
:102660000090009901B0704710B586B000F03BF9BA
:102670002368DFF88442A3421DD1DFF8800282681C
:1026800042F000528260816801F000510091009A8E
:1026900003683021032243F001030360006800F067
:1026A00001000090009B019101A900230292039375
:1026B0009348FEF7FBFF06B010BDF8B586B000F0FA
:1026C000C5F89049904A0B68256890488B4C5B1C74
:1026D00095421DD1012B08D1E56845F48075E56070
:1026E000E26802F480720592059D0B602168032365
:1026F00041F008012160226802F008020592059C61
:10270000009302220024019202940923039443E0DF
:102710007F4E4FF44052B5421FD1012B08D1E568DE
:1027200045F48075E560E06800F480700590059DD3
:102730000B60206840F0020020602168754801F0BD
:1027400002010591059B0092002202210292039250
:10275000092201916946049220E06F4EB5421FD1D3
:10276000012B08D1E76847F48077E760E56805F456
:1027700080750595059E0B60216841F00801216078
:10278000236803F008030593059C009200230222AE
:10279000029303930523019204936946FEF786FF93
:1027A00007B0F0BD38B5B4B000F050F800F096F8BE
:1027B0005A492068514C88421DD100F04DF808B1AB
:1027C000FEF7A4FE2168122241F002012160206878
:1027D0004FF4407100F0020000F030F84D480395CE
:1027E0000492FEF763FFA06840F40010A060A168A7
:1027F00001F400111EE04A4988421DD100F02CF876
:1028000008B1FEF783FE2168122241F02001216009
:102810002068032100F0200000F010F841480395E3
:102820000492FEF743FFA06840F48000A060A16816
:1028300001F480010091009835B030BD0590059BF2
:1028400001920422009169460295704704461421C2
:102850000022684600F06CBB08220023002506A871
:10286000CDE906232695FDF731BD10B5B4B000F0D3
:102870003AF800F033F820682B4988422CD14FF405
:1028800000520023002406A8CDE906231E94FDF77C
:102890001DFD08B1FEF73AFE1848026942F48012A5
:1028A0000261016901F480110091009A03684FF4FC
:1028B0006071022243F020030360006800F02000F2
:1028C0000090009B02920522019101A903941548F2
:1028D00004940592FEF7EAFE34B010BDB821002240
:1028E00006A800F025BB04461421002201A800F030
:1028F0001FBB0000F444025800740040E04402583A
:1029000000000258582B002000A00040000C025884
:1029100000A400400004025800D4004000540040CD
:1029200000580040001402580050014000B500BF9C
:10293000130096469446103928BFA0E80C50FAD8E8
:102940005FEA417C28BF0CC048BF40F8042BC90790
:1029500028BF20F8022B48BF00F8012B00BD000063
:10296000F8B518B10468174DAC4201D00220F2BD91
:1029700009B90320F2BD12B1C469944201D2052005
:10298000F2BD114E33B13468EFF305852C4301D00D
:102990000420F2BD0D4F0E4D3C68AC420BD03468A4
:1029A000EFF305852C4308D03568EFF30584254304
:1029B000B5F1F03F01D21320F2BD01B0BDE8F04007
:1029C00000F0C0BA4554594214000020382A0020B3
:1029D000002100202DE9F84F0024002886B0894608
:1029E0001746984641D01699B0293ED1119E109DA8
:1029F000EFF3108272B640490B685B1C0B6082F3E8
:102A000010883E49A4460B68A919A1F1010E0146A0
:102A1000002013E0DA68954205D3D3F810B05D4585
:102A20003CBF00250120964504D31A6996453CBF5A
:102A300000250120D3F888300CF1010C304A1268CF
:102A4000944503D2994201D00028E3D08A469B46A0
:102A5000EFF3108172B628480268521E026081F3BB
:102A6000108800F0CFFADA4501D10E243FE00DB115
:102A70003A0001D103243AE0C82E38BF052436D3EA
:102A8000129F202F28BF0F2431D2DDF84CC067459C
:102A900038BF18242BD3DDF854E0BEF1010F88BFF6
:102AA000102424D8174B18491868884208BF1324EB
:102AB000164B1868EFF30581084308D01968EFF347
:102AC00005800143B1F1F03F38BF13240FD374B92F
:102AD0001498CDF814E004904346CDF80CC0494654
:102AE000029750460196009500F0AEFA0446204643
:102AF00007B0BDE8F08F00BF4C2A0020402A00201C
:102B0000442A0020382A0020002100201400002040
:102B100070B5EFF3108372B619490C6814B983F3DA
:102B2000108817E017490968EFF30582114302D0B6
:102B300083F310880EE014498C4202D183F310888D
:102B400008E010B983F3108870BD104A116819B1FC
:102B500083F31088132070BD04250121002625630E
:102B6000A163C4F88460E06415686D1C156083F38C
:102B70001088204600F0FCFAD4F8840070BD00BF35
:102B8000382A002014000020002100204C2A0020B8
:102B900038B50D4D4FF0F034286810F10F3F08D0D4
:102BA0002C6000F087FB00F0B7FB08480168491C67
:102BB00001602C600648006800F0C4FB0021296019
:102BC000BDE8314000F0DEBB140000204C2A00209C
:102BD0005C2B002038B5040001D1012032BD00F08B
:102BE00076F818B900F06FF800F02CFC54E010B53E
:102BF00090F83D10012901D0012010BD022380F87A
:102C00003D300168DFF8D030CA6842F00102CA6086
:102C10000168994218BFB1F1804F1FD0DFF8BC2086
:102C200091421CBFDFF8B830994217D0DFF8B440AA
:102C3000A1421CBFDFF8B02091420FD0DFF8AC30CA
:102C400099421CBFDFF8A840A14207D0DFF8A420BA
:102C500091421CBFDFF8A030994208D100F00FF874
:102C600018BFB1F5803F08D000F00FF805E00B4623
:102C70001A46196841F001011160002010BD8C68EE
:102C8000DFF8781021400629704701680A6842F091
:102C900001020846026070470220211D687020680A
:102CA00000F0D2F80120012128730122A970EA70F6
:102CB00028716971AA71E87129726A72A87200207C
:102CC000E9726A7032BD002120462970704704F114
:102CD0003C05687870470000000001400004004097
:102CE00000080040000C00400004014000180040B3
:102CF0000040014000E0004000E400400700010007
:102D0000F8B504462068C5680669B10714D5AA0756
:102D100012D56FF00203012103612177806910F061
:102D2000030F204602D000F08EFB03E000F08CFB86
:102D300000F087F800202077710715D5680713D5B4
:102D400020686FF00401022201612277806910F48B
:102D5000407F204602D000F076FB03E000F074FBD9
:102D600000F06FF800202077310715D5280713D51C
:102D700020686FF00801042201612277C06910F019
:102D8000030F204602D000F05EFB03E000F05CFB86
:102D900000F057F800202077F10615D5E80613D586
:102DA00020686FF01001082201612277C06910F4D9
:102DB000407F204602D000F046FB03E000F044FBD9
:102DC00000F03FF80023237706F0010205F001012F
:102DD0000A4206D027686FF0010320463B61FEF7E8
:102DE00072FB16F4025F08D02A0606D521686FF43C
:102DF00002500861204600F028FBF20508D52B069A
:102E000006D521686FF480700861204600F01EFB33
:102E1000720608D56B0606D521686FF04000086180
:102E2000204600F014FBB0060AD5AA0608D5206893
:102E30006FF0200101612046BDE8F24000F008BBC0
:102E4000F1BD204600F005BB2DE9F043DFF8B8C026
:102E50000368DFF8B840DFF8B850DFF8B880DFF873
:102E6000B890DFF8B820DFF8B8E0DFF8B860604568
:102E700018BFB0F1804F07D0B04218BF704503D0E3
:102E8000904218BF48450DD123F070074B683B4373
:102E9000604518BFB0F1804F14D0B0421CBF7045E0
:102EA00090420FD0484518BF40450BD0A84218BFEC
:102EB000A04207D0DFF8702090421CBFDFF86C20E2
:102EC000904203D123F44076CB6833434A69D1F86A
:102ED00008E023F08003C0F82CE00E6813438662FC
:102EE000604518BF484504D040451CBFA842A042D9
:102EF00001D1096901630268012442F00402026001
:102F000044610360BDE8F0830000014000480140D7
:102F1000004401400040014000040140000C00401A
:102F2000000800400004004000E0004000E40040D1
:102F30004018491C1CBFB1F1010100F8012DF9D165
:102F4000704700002DE9F041D21C074688461D4617
:102F50009208EFF3108372B6274C266894003E6205
:102F600083F310882146384600F074FAEFF310839B
:102F700072B610B9396AB142F1D13246C8F80000D0
:102F800018B183F31088002033E028002ED01B4DA9
:102F9000296819B1102083F310882AE0184E96662C
:102FA000D766946702F18404C2F87C80A16A491C48
:102FB000A162B96A4E1CBE6219B97A621267526781
:102FC00005E0796A11674E6F566732674A670921D3
:102FD000012611639663D0642868401C286083F33F
:102FE0001088104600F0C4F8206802E083F31088CF
:102FF0001020BDE8F08100BF382A00204C2A0020B4
:10300000713C00080C4A1068002800D0704710B5C9
:103010000A4C0B4A2168106881420BD04FF0805354
:10302000084C2360EFF3058020B9EFF3108062B6FF
:1030300080F3108810BD00BF4C2A0020382A0020E1
:103040003C2A002004ED00E02DE9F84F0F46DDF8A2
:1030500028800B99054692469B460C9CDDF83890DB
:10306000EF224046FFF764FFB0212846FEF706FB3B
:10307000AF6205F18807C5F844A00026C5F848B03E
:10308000C5F80C800B9868612020EC62FC60C5F8E4
:103090001890C5F81C9078610B9941444A1E2A612A
:1030A0000D9884421ABF002400202046EC63284972
:1030B000386103202863284669652649AD6500F01C
:1030C00043FAEFF3108172B62348244B2860186846
:1030D000234A18B915602C46AC4606E01468D4F8AB
:1030E0008CC0C4F88C50CCF888500F9A3C60C7F85C
:1030F00004C0401C18601B4803685B1C012A036065
:1031000017D119480268EFF305800243B2F1F03F8E
:1031100006D3164A146824B1E66BE06AE06300E067
:10312000002481F31088284600F030FA6CB1E66381
:103130000BE081F31088EFF3108172B60268521E23
:10314000026081F31088FFF75DFF0020BDE8F28F79
:10315000C53D0008ED3C000844524854442A002074
:10316000402A00204C2A0020140000203C2A002085
:103170002DE9F047064647480568EFF3108472B61C
:10318000AE420BD1F06C00281EBF10F1010F06F10A
:103190004C0000F087FAF1693F4A11603F4B40490B
:1031A00018684FF080523F4F401E1860B06B0128E6
:1031B0005BD10020DFF8F0C0B063D6F82080F06A61
:1031C000DFF8E8E0B0450CD0D6F82490C8F8249099
:1031D000C9F820805EF82090B1452ED14EF82080AD
:1031E0002BE04FF000084FF0010A4EF82080DFF886
:1031F000C080D8F800900AFA00F039EA0000C8F858
:10320000000014D120250026CCF800503E6084F345
:1032100010881868002802BF0A60EFF305800028B4
:1032200035D1EFF3108062B680F310882FE090FA6A
:10323000A0F0B0FA80F0CCF800003868864214D1D3
:10324000DCF800505EF825603E6084F31088186852
:10325000002802BF0A60EFF30580002817D1EFF3C2
:10326000108062B680F3108811E084F310883C6807
:10327000A5420CD01868002802BF0A60EFF3058051
:10328000002804D1EFF3108062B680F31088BDE807
:10329000F08700BF382A00207C2000204C2A002024
:1032A00004ED00E03C2A0020482A00205C2A00208F
:1032B000582A002072B61248016841F001010160ED
:1032C0004FF0E0200F49C0F8081D0F480D4909686C
:1032D00001604FF0E0200D4941614FF007010161AD
:1032E0000021C0F8181D0A49C0F81C1D0949C0F882
:1032F000201D704701B500F005FABDE80140704798
:10330000001000E000000008602B00206F6408003F
:10331000000000FF0000FF4080B500F04FFA00F011
:1033200069FA07480021016041608160C160016164
:103330004161016241628162C1628161C16101BD1D
:10334000282B002038B5094A342502F50054009591
:103350004FF4005306A1204600F096FA20B920460B
:10336000FEF79EFE00B1FEE731BD00001800002010
:10337000547820417070206D656D6F727920706F88
:103380006F6C00004FF000002A4A1060EFF31480C9
:1033900020F0040080F3148862B64FF080504FF0A4
:1033A000E021C1F8040DBFF34F8FBFF36F8FFEE72D
:1033B0002148224A4FF00003016891B10360EFF306
:1033C000098C2CE9F00F1EF0100F01D12CED108AA2
:1033D0001B4C4CF804ED2568C1F808C00DB18D6197
:1033E000236072B61168B1B1016062B64F68144CC7
:1033F0008D6907F101074F602560D1F808C05CF8BE
:1034000004EB1EF0100F01D1BCEC108ABCE8F00FE9
:103410008CF30988704772B61168016009B962B609
:10342000F9E74FF000674FF0E028C8F8047D62B676
:10343000DCE770474C2A0020382A00203C2A002074
:103440007C20002070477047704770477047704776
:10345000704770472DE9F0430246EFF3108672B6CD
:10346000D0689368851E03EBC503994202D386F3A7
:10347000108862E0324B0D46D3F800E05769C2F87D
:1034800020E0401C0023DFF8BCC000217C686445BC
:1034900020D109B9576101213C68E31B083BAB42CD
:1034A0002AD2D4F804900023D4F80080E1450DD14D
:1034B000C7F80080D2F81490D2F80C80A145A8F18A
:1034C0000108C2F80C8006D1576104E0474620B1DC
:1034D000401E00E03F6800B1401E86F31088EFF305
:1034E000108672B6146A744504D0D0685769C2F861
:1034F00020E0401C0028C9D1EBB1581B14280BD385
:1035000007F1080040193968C0F804C00160D368A9
:103510005B1CD3602B4638607A6090685169C31A8F
:10352000083B93608F4204BF3868506186F310886F
:1035300007F1080002E086F310880020BDE8F08360
:10354000382A0020EEEEFFFF026922F00702A2F106
:1035500044020D4B13604FF0000353609360D3603F
:10356000136153619361D361136253629362D362B7
:10357000136353634FF0FF339363D1634FF0807352
:103580001364826070470000FDFFFFFF2DE9F041EA
:103590000446EFF3108572B6606E20B104F14C0062
:1035A00000F0D6F901E00021E164374E374A306877
:1035B0004FF08053364F401E3060A16B206B0029C6
:1035C0003ED1002849D0606B002842D12163E16AD6
:1035D000DFF8C0C05CF8210060BB4CF821402E48E9
:1035E00024624FF0010E6462D0F800C00EFA01FEB2
:1035F0004EEA0C0CC0F800C02848D0F800804145C5
:103600002BD20160386808B93C6026E0C06B81426B
:1036100023D23C6085F310883068002802BF136015
:10362000EFF3058000282CD1EFF3108062B680F311
:10363000108826E0416A0C624462616220620CE0FC
:10364000012818BF022808D0606B10B90021A163BF
:1036500002E00020032160632163114C206885F3A0
:1036600010883D68A8420CD03068002802BF136063
:10367000EFF30580002804D1EFF3108062B680F3E9
:103680001088BDE8F08100BF4C2A002004ED00E066
:103690003C2A00205C2A0020582A0020482A0020CA
:1036A000382A00200168002900D1704711F1010F6C
:1036B00030B51FD08269EAB921292EBF7C21491E6D
:1036C00089000D4A15686A180C4909688A4205D3B1
:1036D0000B4B521A1C6822F00302A218116819B988
:1036E00000614061106004E04B691861486101614C
:1036F0004361826130BD00BF5C2000205820002063
:10370000542000202149086800F101000860204B86
:103710001A683AB1A2F101021A601AB91D4B4FF0B2
:10372000010018601C490868026822B11B4B4FF069
:1037300001021A6008E000F10400194B1A68904277
:1037400001D1184B18680860124B1A6812B9134956
:103750000868C0B101B51149086808B100F00EF958
:103760000C4B1A686AB100F019F90F48016841B9A9
:103770000E4801680E4A13680E480F4A994200D05D
:103780000260BDE80140BFF34F8F70474C2000201E
:103790007C200020502000205C20002060200020A1
:1037A00058200020542000204C2A0020382A0020D5
:1037B0003C2A002004ED00E00000001010B50C4C85
:1037C000002104F12000216061602022016080213D
:1037D000226104F12400FDF751FF00220020A260C5
:1037E000E2606061E269A06142F08572E26110BD51
:1037F000382A002070B586B01B4C002000252060C0
:1038000080212063194E6060606104F134002562FC
:10381000FDF734FF04F1340204F13403A26004F133
:10382000B40004F5B271E5624FF480622361E06098
:1038300010A56162A262E06A00210390636A0290AF
:10384000A06A0591324604912946019004F1B40022
:103850000093074BFFF7F8FB0028ECD10021A06193
:10386000E16106B070BD00004C2000207D3A0008E8
:103870004D49544153797374656D2054696D657277
:1038800020546872656164002DE9F8430446894656
:1038900015469846002624B30898342821D1EFF322
:1038A000108172B624480268521C026081F31088AD
:1038B00022482349076800200B6801E0FF6A401C8A
:1038C000984201D2BC42F9D1EFF3108172B61A4886
:1038D0000268521E026081F31088FFF793FBBC421E
:1038E00001D1022624E00DB9032621E0B8F1640FCE
:1038F00038BF05261CD3134A13491068884208BFF5
:103900001326124A1068EFF30581084308D01168A6
:10391000EFF305800143B1F1F03F38BF132607D321
:1039200036B943462A464946204600F067F806461F
:103930003046BDE8F28300BF4C2A0020502B002007
:10394000542B0020382A00200021002014000020E1
:10395000816991B10269904205D10A6882420AD117
:1039600000230B6007E0436953611A610B688342CF
:1039700004BF91610A60002181617047EFF31080FC
:1039800072B604490A68521C0A6080F31088024823
:10399000FFF7FCBD4C2A00200021002010B5114883
:1039A0000068EFF3108272B600230F4C2360A8B1B9
:1039B000016B99B9C1690D4B81611960016A81423E
:1039C0000CD0C36AC06B834208D10948094C40F847
:1039D000231009490B6850F82300206082F31088F7
:1039E00010BD00BF382A0020502000207C2000207D
:1039F0005C2A00203C2A0020482A0020F8B50D4609
:103A00001F46044616463421BF08FDF737FEBF00A7
:103A1000A7F10800A0600221F219E1606560101FA3
:103A2000A6610021E76126616661046040F8046DCB
:103A300030600E4870602162EFF3108172B60C4A5C
:103A40000C4B22600C4A106818B91C6023462546AE
:103A500003E01B681D6B1C63EC62401C1060256357
:103A6000E36281F310880020F2BD00BFEEEEFFFF9D
:103A700045545942502B0020542B00202DE9FC4185
:103A80000024384988420ED0BDE8F381364803222D
:103A9000026301258563354A13685B1C136081F35B
:103AA0001088FFF765FBEFF3108172B6304A156896
:103AB0002B6800930BB1C3F818D0106800232D4D6C
:103AC00040F8043B2E68B04204BF2B4800681060E9
:103AD0002A4D2B6081F31088EFF3108172B6284EC7
:103AE00023E0002307E07868BA68FC680028F8D073
:103AF0003F6101AB01973860BB61376081F310888B
:103B000010001CBF20469047EFF3108872B6019A50
:103B100000213160BA4203D1B9613846FFF7C2FDD6
:103B200088F31088EFF3108172B6009898B10746B9
:103B3000006900220192874208BF009205D07A698D
:103B400042611061C0F818D0009038682128CAD3AB
:103B500020380022CCE72868002897D081F310880D
:103B6000A1E700BF4D495441002100204C2A00200C
:103B70005C200020582000205420002060200020DD
:103B80006C20002070B52C482C4A016841F470016B
:103B900001601068072100F00F00072803D21068A9
:103BA00061F303001060264B00261D68254845F090
:103BB00001051D601E611C6804401C60156805F04D
:103BC0000F05072D03D9106861F303001060002171
:103BD000002299610020DA611B4918621B4A996230
:103BE0001B48DA6200211863002259639863DA6384
:103BF0001864002058641968164821F4802119605F
:103C00001A660368DC040BD4056843F2D201124A39
:103C100045F4805505601160036823F48053036008
:103C200070BD00000D48816841F0020181600268AA
:103C30009104FCD57047000088ED00E000200052A0
:103C4000004402587FEDF6EA000202020000FF0184
:103C500080020101D4440258004000520448025836
:103C60000000000001020304010203040607080922
:103C700070B50246EFF3108372B6906E184CA042F6
:103C800002BF02F18404A56AA94226D1D16E21B3F4
:103C90000868144DA84220D1886AF0B10025401E62
:103CA000956607D0166F556F75672E674D6A9542FA
:103CB00008BF35464D628862106B09280DD110216E
:103CC000094821600468641C046083F3108810466E
:103CD000FFF75CFCEFF3108372B683F3108870BDBE
:103CE000713C0008455459424C2A002038B5114A0D
:103CF0001468A06C616C88470F4A116809B12046AE
:103D00008847EFF3108072B6012100252163A1637B
:103D10000A49E5640A68521C0A6080F31088EFF3D0
:103D2000148020F0040080F314882046BDE832405F
:103D3000FFF71EBA382A0020502A00204C2A002003
:103D40000000000000000000000000000000000073
:103D5000000000000100000002000000030000005D
:103D6000040000000000000005000000000000004A
:103D7000000000000000000006000000000000003D
:103D800000000000000000000700000030B4002523
:103D900012E050F8042BD30744BF4A44521E091FB7
:103DA000042942F8045BFAD213468C0744BF1580FD
:103DB0009B1CC90748BF1D7050F8041B0029E8D19F
:103DC00030BC7047EFF3108372B6016B042907D142
:103DD00008490A68521C0A6083F31088FFF7D6BBB3
:103DE000826ED0F8AC1083F31088130018BF104710
:103DF000704700BF4C2A002010B50749794418319C
:103E0000064C7C44163404E00A68081D891888476B
:103E10000146A142F8D110BD7C0000009C000000CA
:103E20004EF68851CEF20001086840F47000086038
:103E3000BFF34F8FBFF36F8F4FF00170E1EE100AA9
:103E40007047000000F00FF8002801D0FFF7D4FF02
:103E5000AFF300800020AFF30080AFF30080FDF7E8
:103E60002FF900F002F80120704700F001B80000BF
:103E700000F000F80746384600F002F8FBE70000C3
:103E800080B5AFF30080024A11001820ABBEFBE7FB
:103E900026000200F9FEFFFF4C2B00001800002056
:103EA00000000000DFD7FFFF180000005C000000EA
:103EB00000000020000000004EF6A550CFF6F5608F
:103EC000014603B4684680F30988AFF30080FFF72A
:103ED000A7FFFFF7B7FF000002488047024880476E
:103EE00002480047253C0008853B0008B93E000811
:103EF000FEE7FEE7FEE7FEE7FEE770470148FEF754
:103F0000FFBE0000DC2A00200100000000000000CD
:103F1000100000000090D0030090D003F0F0F0F00B
:103F2000FFF7FEBFFFF7FEBFFFF7FEBFFFF7FEBFC5
:103F3000FFF7FEBFFFF7FEBFFFF7FEBFFFF7FEBFB5
:103F4000FFF7FEBFFFF7FEBFFFF7FEBFFFF7FEBFA5
:103F5000FFF7FEBFFFF7FEBFFFF7FEBFFFF7FEBF95
:04414000FFF7FEBFC8
:0400000508003EB9F8
:00000001FF
